{
	"FundMe.sol": {
		"FundMe": {
			"abi": [
				{
					"inputs": [],
					"stateMutability": "nonpayable",
					"type": "constructor"
				},
				{
					"inputs": [
						{
							"internalType": "address",
							"name": "funder",
							"type": "address"
						}
					],
					"name": "addressToAmountFunded",
					"outputs": [
						{
							"internalType": "uint256",
							"name": "amountFunded",
							"type": "uint256"
						}
					],
					"stateMutability": "view",
					"type": "function"
				},
				{
					"inputs": [],
					"name": "fund",
					"outputs": [],
					"stateMutability": "payable",
					"type": "function"
				},
				{
					"inputs": [
						{
							"internalType": "uint256",
							"name": "",
							"type": "uint256"
						}
					],
					"name": "funders",
					"outputs": [
						{
							"internalType": "address",
							"name": "",
							"type": "address"
						}
					],
					"stateMutability": "view",
					"type": "function"
				},
				{
					"inputs": [],
					"name": "minimumUsd",
					"outputs": [
						{
							"internalType": "uint256",
							"name": "",
							"type": "uint256"
						}
					],
					"stateMutability": "view",
					"type": "function"
				},
				{
					"inputs": [],
					"name": "owner",
					"outputs": [
						{
							"internalType": "address",
							"name": "",
							"type": "address"
						}
					],
					"stateMutability": "view",
					"type": "function"
				},
				{
					"inputs": [],
					"name": "withdraw",
					"outputs": [],
					"stateMutability": "nonpayable",
					"type": "function"
				}
			],
			"devdoc": {
				"kind": "dev",
				"methods": {},
				"version": 1
			},
			"evm": {
				"assembly": "    /* \"FundMe.sol\":117:1300  contract FundMe{... */\n  mstore(0x40, 0x80)\n    /* \"FundMe.sol\":203:207  5e18 */\n  0x4563918244f40000\n    /* \"FundMe.sol\":178:207  uint public minimumUsd = 5e18 */\n  0x00\n  sstore\n    /* \"FundMe.sol\":357:407  constructor(){... */\n  callvalue\n  dup1\n  iszero\n  tag_1\n  jumpi\n  0x00\n  dup1\n  revert\ntag_1:\n  pop\n    /* \"FundMe.sol\":389:399  msg.sender */\n  caller\n    /* \"FundMe.sol\":381:386  owner */\n  0x03\n  0x00\n    /* \"FundMe.sol\":381:399  owner = msg.sender */\n  0x0100\n  exp\n  dup2\n  sload\n  dup2\n  0xffffffffffffffffffffffffffffffffffffffff\n  mul\n  not\n  and\n  swap1\n  dup4\n  0xffffffffffffffffffffffffffffffffffffffff\n  and\n  mul\n  or\n  swap1\n  sstore\n  pop\n    /* \"FundMe.sol\":117:1300  contract FundMe{... */\n  dataSize(sub_0)\n  dup1\n  dataOffset(sub_0)\n  0x00\n  codecopy\n  0x00\n  return\nstop\n\nsub_0: assembly {\n        /* \"FundMe.sol\":117:1300  contract FundMe{... */\n      mstore(0x40, 0x80)\n      jumpi(tag_1, lt(calldatasize, 0x04))\n      shr(0xe0, calldataload(0x00))\n      dup1\n      0x098de820\n      eq\n      tag_2\n      jumpi\n      dup1\n      0x3ccfd60b\n      eq\n      tag_3\n      jumpi\n      dup1\n      0x3e47d6f3\n      eq\n      tag_4\n      jumpi\n      dup1\n      0x8da5cb5b\n      eq\n      tag_5\n      jumpi\n      dup1\n      0xb60d4288\n      eq\n      tag_6\n      jumpi\n      dup1\n      0xdc0d3dff\n      eq\n      tag_7\n      jumpi\n    tag_1:\n      0x00\n      dup1\n      revert\n        /* \"FundMe.sol\":178:207  uint public minimumUsd = 5e18 */\n    tag_2:\n      callvalue\n      dup1\n      iszero\n      tag_8\n      jumpi\n      0x00\n      dup1\n      revert\n    tag_8:\n      pop\n      tag_9\n      tag_10\n      jump\t// in\n    tag_9:\n      mload(0x40)\n      tag_11\n      swap2\n      swap1\n      tag_12\n      jump\t// in\n    tag_11:\n      mload(0x40)\n      dup1\n      swap2\n      sub\n      swap1\n      return\n        /* \"FundMe.sol\":677:1157  function withdraw() public onlyOwner{... */\n    tag_3:\n      callvalue\n      dup1\n      iszero\n      tag_13\n      jumpi\n      0x00\n      dup1\n      revert\n    tag_13:\n      pop\n      tag_14\n      tag_15\n      jump\t// in\n    tag_14:\n      stop\n        /* \"FundMe.sol\":245:321  mapping (address funder=> uint256 amountFunded) public addressToAmountFunded */\n    tag_4:\n      callvalue\n      dup1\n      iszero\n      tag_16\n      jumpi\n      0x00\n      dup1\n      revert\n    tag_16:\n      pop\n      tag_17\n      0x04\n      dup1\n      calldatasize\n      sub\n      dup2\n      add\n      swap1\n      tag_18\n      swap2\n      swap1\n      tag_19\n      jump\t// in\n    tag_18:\n      tag_20\n      jump\t// in\n    tag_17:\n      mload(0x40)\n      tag_21\n      swap2\n      swap1\n      tag_12\n      jump\t// in\n    tag_21:\n      mload(0x40)\n      dup1\n      swap2\n      sub\n      swap1\n      return\n        /* \"FundMe.sol\":330:350  address public owner */\n    tag_5:\n      callvalue\n      dup1\n      iszero\n      tag_22\n      jumpi\n      0x00\n      dup1\n      revert\n    tag_22:\n      pop\n      tag_23\n      tag_24\n      jump\t// in\n    tag_23:\n      mload(0x40)\n      tag_25\n      swap2\n      swap1\n      tag_26\n      jump\t// in\n    tag_25:\n      mload(0x40)\n      dup1\n      swap2\n      sub\n      swap1\n      return\n        /* \"FundMe.sol\":417:671  function fund() public payable{... */\n    tag_6:\n      tag_27\n      tag_28\n      jump\t// in\n    tag_27:\n      stop\n        /* \"FundMe.sol\":214:238  address[] public funders */\n    tag_7:\n      callvalue\n      dup1\n      iszero\n      tag_29\n      jumpi\n      0x00\n      dup1\n      revert\n    tag_29:\n      pop\n      tag_30\n      0x04\n      dup1\n      calldatasize\n      sub\n      dup2\n      add\n      swap1\n      tag_31\n      swap2\n      swap1\n      tag_32\n      jump\t// in\n    tag_31:\n      tag_33\n      jump\t// in\n    tag_30:\n      mload(0x40)\n      tag_34\n      swap2\n      swap1\n      tag_26\n      jump\t// in\n    tag_34:\n      mload(0x40)\n      dup1\n      swap2\n      sub\n      swap1\n      return\n        /* \"FundMe.sol\":178:207  uint public minimumUsd = 5e18 */\n    tag_10:\n      sload(0x00)\n      dup2\n      jump\t// out\n        /* \"FundMe.sol\":677:1157  function withdraw() public onlyOwner{... */\n    tag_15:\n        /* \"FundMe.sol\":1216:1221  owner */\n      0x03\n      0x00\n      swap1\n      sload\n      swap1\n      0x0100\n      exp\n      swap1\n      div\n      0xffffffffffffffffffffffffffffffffffffffff\n      and\n        /* \"FundMe.sol\":1202:1221  msg.sender == owner */\n      0xffffffffffffffffffffffffffffffffffffffff\n      and\n        /* \"FundMe.sol\":1202:1212  msg.sender */\n      caller\n        /* \"FundMe.sol\":1202:1221  msg.sender == owner */\n      0xffffffffffffffffffffffffffffffffffffffff\n      and\n      eq\n        /* \"FundMe.sol\":1194:1245  require(msg.sender == owner,\"Sender is not owner!\") */\n      tag_36\n      jumpi\n      mload(0x40)\n      0x08c379a000000000000000000000000000000000000000000000000000000000\n      dup2\n      mstore\n      0x04\n      add\n      tag_37\n      swap1\n      tag_38\n      jump\t// in\n    tag_37:\n      mload(0x40)\n      dup1\n      swap2\n      sub\n      swap1\n      revert\n    tag_36:\n        /* \"FundMe.sol\":728:747  uint256 funderIndex */\n      0x00\n        /* \"FundMe.sol\":724:910  for(uint256 funderIndex = 0; funderIndex < funders.length; funderIndex++){... */\n    tag_40:\n        /* \"FundMe.sol\":767:774  funders */\n      0x01\n        /* \"FundMe.sol\":767:781  funders.length */\n      dup1\n      sload\n      swap1\n      pop\n        /* \"FundMe.sol\":753:764  funderIndex */\n      dup2\n        /* \"FundMe.sol\":753:781  funderIndex < funders.length */\n      lt\n        /* \"FundMe.sol\":724:910  for(uint256 funderIndex = 0; funderIndex < funders.length; funderIndex++){... */\n      iszero\n      tag_41\n      jumpi\n        /* \"FundMe.sol\":812:826  address funder */\n      0x00\n        /* \"FundMe.sol\":830:837  funders */\n      0x01\n        /* \"FundMe.sol\":838:849  funderIndex */\n      dup3\n        /* \"FundMe.sol\":830:850  funders[funderIndex] */\n      dup2\n      sload\n      dup2\n      lt\n      tag_43\n      jumpi\n      tag_44\n      tag_45\n      jump\t// in\n    tag_44:\n    tag_43:\n      swap1\n      0x00\n      mstore\n      keccak256(0x00, 0x20)\n      add\n      0x00\n      swap1\n      sload\n      swap1\n      0x0100\n      exp\n      swap1\n      div\n      0xffffffffffffffffffffffffffffffffffffffff\n      and\n        /* \"FundMe.sol\":812:850  address funder =  funders[funderIndex] */\n      swap1\n      pop\n        /* \"FundMe.sol\":897:898  0 */\n      0x00\n        /* \"FundMe.sol\":865:886  addressToAmountFunded */\n      0x02\n        /* \"FundMe.sol\":865:894  addressToAmountFunded[funder] */\n      0x00\n        /* \"FundMe.sol\":887:893  funder */\n      dup4\n        /* \"FundMe.sol\":865:894  addressToAmountFunded[funder] */\n      0xffffffffffffffffffffffffffffffffffffffff\n      and\n      0xffffffffffffffffffffffffffffffffffffffff\n      and\n      dup2\n      mstore\n      0x20\n      add\n      swap1\n      dup2\n      mstore\n      0x20\n      add\n      0x00\n      keccak256\n        /* \"FundMe.sol\":865:898  addressToAmountFunded[funder] = 0 */\n      dup2\n      swap1\n      sstore\n      pop\n        /* \"FundMe.sol\":797:910  {... */\n      pop\n        /* \"FundMe.sol\":783:796  funderIndex++ */\n      dup1\n      dup1\n      tag_47\n      swap1\n      tag_48\n      jump\t// in\n    tag_47:\n      swap2\n      pop\n      pop\n        /* \"FundMe.sol\":724:910  for(uint256 funderIndex = 0; funderIndex < funders.length; funderIndex++){... */\n      jump(tag_40)\n    tag_41:\n      pop\n        /* \"FundMe.sol\":944:945  0 */\n      0x00\n        /* \"FundMe.sol\":930:946  new address[](0) */\n      0xffffffffffffffff\n      dup2\n      gt\n      iszero\n      tag_49\n      jumpi\n      tag_50\n      tag_51\n      jump\t// in\n    tag_50:\n    tag_49:\n      mload(0x40)\n      swap1\n      dup1\n      dup3\n      mstore\n      dup1\n      0x20\n      mul\n      0x20\n      add\n      dup3\n      add\n      0x40\n      mstore\n      dup1\n      iszero\n      tag_52\n      jumpi\n      dup2\n      0x20\n      add\n      0x20\n      dup3\n      mul\n      dup1\n      calldatasize\n      dup4\n      calldatacopy\n      dup1\n      dup3\n      add\n      swap2\n      pop\n      pop\n      swap1\n      pop\n    tag_52:\n      pop\n        /* \"FundMe.sol\":920:927  funders */\n      0x01\n        /* \"FundMe.sol\":920:946  funders = new address[](0) */\n      swap1\n      dup1\n      mload\n      swap1\n      0x20\n      add\n      swap1\n      tag_53\n      swap3\n      swap2\n      swap1\n      tag_54\n      jump\t// in\n    tag_53:\n      pop\n        /* \"FundMe.sol\":1023:1039  bool callsuccess */\n      0x00\n        /* \"FundMe.sol\":1054:1064  msg.sender */\n      caller\n        /* \"FundMe.sol\":1045:1070  payable (msg.sender).call */\n      0xffffffffffffffffffffffffffffffffffffffff\n      and\n        /* \"FundMe.sol\":1078:1099  address(this).balance */\n      selfbalance\n        /* \"FundMe.sol\":1045:1104  payable (msg.sender).call{value: address(this).balance}(\"\") */\n      mload(0x40)\n      tag_55\n      swap1\n      tag_56\n      jump\t// in\n    tag_55:\n      0x00\n      mload(0x40)\n      dup1\n      dup4\n      sub\n      dup2\n      dup6\n      dup8\n      gas\n      call\n      swap3\n      pop\n      pop\n      pop\n      returndatasize\n      dup1\n      0x00\n      dup2\n      eq\n      tag_59\n      jumpi\n      mload(0x40)\n      swap2\n      pop\n      and(add(returndatasize, 0x3f), not(0x1f))\n      dup3\n      add\n      0x40\n      mstore\n      returndatasize\n      dup3\n      mstore\n      returndatasize\n      0x00\n      0x20\n      dup5\n      add\n      returndatacopy\n      jump(tag_58)\n    tag_59:\n      0x60\n      swap2\n      pop\n    tag_58:\n      pop\n        /* \"FundMe.sol\":1022:1104  (bool callsuccess, ) = payable (msg.sender).call{value: address(this).balance}(\"\") */\n      pop\n      swap1\n      pop\n        /* \"FundMe.sol\":1123:1134  callsuccess */\n      dup1\n        /* \"FundMe.sol\":1115:1149  require(callsuccess,\"Call failed\") */\n      tag_60\n      jumpi\n      mload(0x40)\n      0x08c379a000000000000000000000000000000000000000000000000000000000\n      dup2\n      mstore\n      0x04\n      add\n      tag_61\n      swap1\n      tag_62\n      jump\t// in\n    tag_61:\n      mload(0x40)\n      dup1\n      swap2\n      sub\n      swap1\n      revert\n    tag_60:\n        /* \"FundMe.sol\":713:1157  {... */\n      pop\n        /* \"FundMe.sol\":677:1157  function withdraw() public onlyOwner{... */\n      jump\t// out\n        /* \"FundMe.sol\":245:321  mapping (address funder=> uint256 amountFunded) public addressToAmountFunded */\n    tag_20:\n      mstore(0x20, 0x02)\n      dup1\n      0x00\n      mstore\n      keccak256(0x00, 0x40)\n      0x00\n      swap2\n      pop\n      swap1\n      pop\n      sload\n      dup2\n      jump\t// out\n        /* \"FundMe.sol\":330:350  address public owner */\n    tag_24:\n      0x03\n      0x00\n      swap1\n      sload\n      swap1\n      0x0100\n      exp\n      swap1\n      div\n      0xffffffffffffffffffffffffffffffffffffffff\n      and\n      dup2\n      jump\t// out\n        /* \"FundMe.sol\":417:671  function fund() public payable{... */\n    tag_28:\n        /* \"FundMe.sol\":499:509  minimumUsd */\n      sload(0x00)\n        /* \"FundMe.sol\":466:495  msg.value.getConvertionRate() */\n      tag_64\n        /* \"FundMe.sol\":466:475  msg.value */\n      callvalue\n        /* \"FundMe.sol\":466:493  msg.value.getConvertionRate */\n      tag_65\n        /* \"FundMe.sol\":466:495  msg.value.getConvertionRate() */\n      jump\t// in\n    tag_64:\n        /* \"FundMe.sol\":466:509  msg.value.getConvertionRate() >= minimumUsd */\n      lt\n      iszero\n        /* \"FundMe.sol\":458:536  require(msg.value.getConvertionRate() >= minimumUsd, \"didn t send enough ETH\") */\n      tag_66\n      jumpi\n      mload(0x40)\n      0x08c379a000000000000000000000000000000000000000000000000000000000\n      dup2\n      mstore\n      0x04\n      add\n      tag_67\n      swap1\n      tag_68\n      jump\t// in\n    tag_67:\n      mload(0x40)\n      dup1\n      swap2\n      sub\n      swap1\n      revert\n    tag_66:\n        /* \"FundMe.sol\":547:554  funders */\n      0x01\n        /* \"FundMe.sol\":560:570  msg.sender */\n      caller\n        /* \"FundMe.sol\":547:571  funders.push(msg.sender) */\n      swap1\n      dup1\n      0x01\n      dup2\n      sload\n      add\n      dup1\n      dup3\n      sstore\n      dup1\n      swap2\n      pop\n      pop\n      0x01\n      swap1\n      sub\n      swap1\n      0x00\n      mstore\n      keccak256(0x00, 0x20)\n      add\n      0x00\n      swap1\n      swap2\n      swap1\n      swap2\n      swap1\n      swap2\n      0x0100\n      exp\n      dup2\n      sload\n      dup2\n      0xffffffffffffffffffffffffffffffffffffffff\n      mul\n      not\n      and\n      swap1\n      dup4\n      0xffffffffffffffffffffffffffffffffffffffff\n      and\n      mul\n      or\n      swap1\n      sstore\n      pop\n        /* \"FundMe.sol\":654:663  msg.value */\n      callvalue\n        /* \"FundMe.sol\":618:639  addressToAmountFunded */\n      0x02\n        /* \"FundMe.sol\":618:651  addressToAmountFunded[msg.sender] */\n      0x00\n        /* \"FundMe.sol\":640:650  msg.sender */\n      caller\n        /* \"FundMe.sol\":618:651  addressToAmountFunded[msg.sender] */\n      0xffffffffffffffffffffffffffffffffffffffff\n      and\n      0xffffffffffffffffffffffffffffffffffffffff\n      and\n      dup2\n      mstore\n      0x20\n      add\n      swap1\n      dup2\n      mstore\n      0x20\n      add\n      0x00\n      keccak256\n      sload\n        /* \"FundMe.sol\":618:663  addressToAmountFunded[msg.sender] + msg.value */\n      tag_70\n      swap2\n      swap1\n      tag_71\n      jump\t// in\n    tag_70:\n        /* \"FundMe.sol\":582:603  addressToAmountFunded */\n      0x02\n        /* \"FundMe.sol\":582:615  addressToAmountFunded[msg.sender] */\n      0x00\n        /* \"FundMe.sol\":604:614  msg.sender */\n      caller\n        /* \"FundMe.sol\":582:615  addressToAmountFunded[msg.sender] */\n      0xffffffffffffffffffffffffffffffffffffffff\n      and\n      0xffffffffffffffffffffffffffffffffffffffff\n      and\n      dup2\n      mstore\n      0x20\n      add\n      swap1\n      dup2\n      mstore\n      0x20\n      add\n      0x00\n      keccak256\n        /* \"FundMe.sol\":582:663  addressToAmountFunded[msg.sender] = addressToAmountFunded[msg.sender] + msg.value */\n      dup2\n      swap1\n      sstore\n      pop\n        /* \"FundMe.sol\":417:671  function fund() public payable{... */\n      jump\t// out\n        /* \"FundMe.sol\":214:238  address[] public funders */\n    tag_33:\n      0x01\n      dup2\n      dup2\n      sload\n      dup2\n      lt\n      tag_72\n      jumpi\n      0x00\n      dup1\n      revert\n    tag_72:\n      swap1\n      0x00\n      mstore\n      keccak256(0x00, 0x20)\n      add\n      0x00\n      swap2\n      pop\n      sload\n      swap1\n      0x0100\n      exp\n      swap1\n      div\n      0xffffffffffffffffffffffffffffffffffffffff\n      and\n      dup2\n      jump\t// out\n        /* \"PriceConverter.sol\":562:777  function getConvertionRate(uint256 ehtAmount) internal view returns (uint256){... */\n    tag_65:\n        /* \"PriceConverter.sol\":631:638  uint256 */\n      0x00\n        /* \"PriceConverter.sol\":650:663  uint ethPrice */\n      dup1\n        /* \"PriceConverter.sol\":666:676  getPrice() */\n      tag_75\n        /* \"PriceConverter.sol\":666:674  getPrice */\n      tag_76\n        /* \"PriceConverter.sol\":666:676  getPrice() */\n      jump\t// in\n    tag_75:\n        /* \"PriceConverter.sol\":650:676  uint ethPrice = getPrice() */\n      swap1\n      pop\n        /* \"PriceConverter.sol\":687:707  uint256 ethAmountUsd */\n      0x00\n        /* \"PriceConverter.sol\":735:739  1e18 */\n      0x0de0b6b3a7640000\n        /* \"PriceConverter.sol\":722:731  ehtAmount */\n      dup5\n        /* \"PriceConverter.sol\":711:719  ethPrice */\n      dup4\n        /* \"PriceConverter.sol\":711:731  ethPrice * ehtAmount */\n      tag_77\n      swap2\n      swap1\n      tag_78\n      jump\t// in\n    tag_77:\n        /* \"PriceConverter.sol\":710:739  (ethPrice * ehtAmount) / 1e18 */\n      tag_79\n      swap2\n      swap1\n      tag_80\n      jump\t// in\n    tag_79:\n        /* \"PriceConverter.sol\":687:739  uint256 ethAmountUsd = (ethPrice * ehtAmount) / 1e18 */\n      swap1\n      pop\n        /* \"PriceConverter.sol\":757:769  ethAmountUsd */\n      dup1\n        /* \"PriceConverter.sol\":750:769  return ethAmountUsd */\n      swap3\n      pop\n      pop\n      pop\n        /* \"PriceConverter.sol\":562:777  function getConvertionRate(uint256 ehtAmount) internal view returns (uint256){... */\n      swap2\n      swap1\n      pop\n      jump\t// out\n        /* \"PriceConverter.sol\":206:556  function getPrice () internal  view returns(uint256){... */\n    tag_76:\n        /* \"PriceConverter.sol\":250:257  uint256 */\n      0x00\n        /* \"PriceConverter.sol\":346:377  AggregatorV3Interface priceFeed */\n      dup1\n        /* \"PriceConverter.sol\":402:444  0x694AA1769357215DE4FAC081bf1f309aDC325306 */\n      0x694aa1769357215de4fac081bf1f309adc325306\n        /* \"PriceConverter.sol\":346:445  AggregatorV3Interface priceFeed = AggregatorV3Interface(0x694AA1769357215DE4FAC081bf1f309aDC325306) */\n      swap1\n      pop\n        /* \"PriceConverter.sol\":460:472  int256 price */\n      0x00\n        /* \"PriceConverter.sol\":482:491  priceFeed */\n      dup2\n        /* \"PriceConverter.sol\":482:507  priceFeed.latestRoundData */\n      0xffffffffffffffffffffffffffffffffffffffff\n      and\n      0xfeaf968c\n        /* \"PriceConverter.sol\":482:509  priceFeed.latestRoundData() */\n      mload(0x40)\n      dup2\n      0xffffffff\n      and\n      0xe0\n      shl\n      dup2\n      mstore\n      0x04\n      add\n      0xa0\n      mload(0x40)\n      dup1\n      dup4\n      sub\n      dup2\n      dup7\n      gas\n      staticcall\n      iszero\n      dup1\n      iszero\n      tag_83\n      jumpi\n      returndatasize\n      0x00\n      dup1\n      returndatacopy\n      revert(0x00, returndatasize)\n    tag_83:\n      pop\n      pop\n      pop\n      pop\n      mload(0x40)\n      returndatasize\n      not(0x1f)\n      0x1f\n      dup3\n      add\n      and\n      dup3\n      add\n      dup1\n      0x40\n      mstore\n      pop\n      dup2\n      add\n      swap1\n      tag_84\n      swap2\n      swap1\n      tag_85\n      jump\t// in\n    tag_84:\n        /* \"PriceConverter.sol\":456:509  ( , int256 price , , ,) = priceFeed.latestRoundData() */\n      pop\n      pop\n      pop\n      swap2\n      pop\n      pop\n        /* \"PriceConverter.sol\":543:547  1e10 */\n      0x02540be400\n        /* \"PriceConverter.sol\":535:540  price */\n      dup2\n        /* \"PriceConverter.sol\":535:547  price * 1e10 */\n      tag_86\n      swap2\n      swap1\n      tag_87\n      jump\t// in\n    tag_86:\n        /* \"PriceConverter.sol\":520:548  return uint256(price * 1e10) */\n      swap3\n      pop\n      pop\n      pop\n        /* \"PriceConverter.sol\":206:556  function getPrice () internal  view returns(uint256){... */\n      swap1\n      jump\t// out\n    tag_54:\n      dup3\n      dup1\n      sload\n      dup3\n      dup3\n      sstore\n      swap1\n      0x00\n      mstore\n      keccak256(0x00, 0x20)\n      swap1\n      dup2\n      add\n      swap3\n      dup3\n      iszero\n      tag_88\n      jumpi\n      swap2\n      0x20\n      mul\n      dup3\n      add\n    tag_89:\n      dup3\n      dup2\n      gt\n      iszero\n      tag_90\n      jumpi\n      dup3\n      mload\n      dup3\n      exp(0x0100, 0x00)\n      dup2\n      sload\n      dup2\n      0xffffffffffffffffffffffffffffffffffffffff\n      mul\n      not\n      and\n      swap1\n      dup4\n      0xffffffffffffffffffffffffffffffffffffffff\n      and\n      mul\n      or\n      swap1\n      sstore\n      pop\n      swap2\n      0x20\n      add\n      swap2\n      swap1\n      0x01\n      add\n      swap1\n      jump(tag_89)\n    tag_90:\n    tag_88:\n      pop\n      swap1\n      pop\n      tag_91\n      swap2\n      swap1\n      tag_92\n      jump\t// in\n    tag_91:\n      pop\n      swap1\n      jump\t// out\n    tag_92:\n    tag_93:\n      dup1\n      dup3\n      gt\n      iszero\n      tag_94\n      jumpi\n      0x00\n      dup2\n      0x00\n      swap1\n      sstore\n      pop\n      0x01\n      add\n      jump(tag_93)\n    tag_94:\n      pop\n      swap1\n      jump\t// out\n        /* \"#utility.yul\":7:84   */\n    tag_95:\n        /* \"#utility.yul\":44:51   */\n      0x00\n        /* \"#utility.yul\":73:78   */\n      dup2\n        /* \"#utility.yul\":62:78   */\n      swap1\n      pop\n        /* \"#utility.yul\":7:84   */\n      swap2\n      swap1\n      pop\n      jump\t// out\n        /* \"#utility.yul\":90:208   */\n    tag_96:\n        /* \"#utility.yul\":177:201   */\n      tag_129\n        /* \"#utility.yul\":195:200   */\n      dup2\n        /* \"#utility.yul\":177:201   */\n      tag_95\n      jump\t// in\n    tag_129:\n        /* \"#utility.yul\":172:175   */\n      dup3\n        /* \"#utility.yul\":165:202   */\n      mstore\n        /* \"#utility.yul\":90:208   */\n      pop\n      pop\n      jump\t// out\n        /* \"#utility.yul\":214:436   */\n    tag_12:\n        /* \"#utility.yul\":307:311   */\n      0x00\n        /* \"#utility.yul\":345:347   */\n      0x20\n        /* \"#utility.yul\":334:343   */\n      dup3\n        /* \"#utility.yul\":330:348   */\n      add\n        /* \"#utility.yul\":322:348   */\n      swap1\n      pop\n        /* \"#utility.yul\":358:429   */\n      tag_131\n        /* \"#utility.yul\":426:427   */\n      0x00\n        /* \"#utility.yul\":415:424   */\n      dup4\n        /* \"#utility.yul\":411:428   */\n      add\n        /* \"#utility.yul\":402:408   */\n      dup5\n        /* \"#utility.yul\":358:429   */\n      tag_96\n      jump\t// in\n    tag_131:\n        /* \"#utility.yul\":214:436   */\n      swap3\n      swap2\n      pop\n      pop\n      jump\t// out\n        /* \"#utility.yul\":523:640   */\n    tag_98:\n        /* \"#utility.yul\":632:633   */\n      0x00\n        /* \"#utility.yul\":629:630   */\n      dup1\n        /* \"#utility.yul\":622:634   */\n      revert\n        /* \"#utility.yul\":769:895   */\n    tag_100:\n        /* \"#utility.yul\":806:813   */\n      0x00\n        /* \"#utility.yul\":846:888   */\n      0xffffffffffffffffffffffffffffffffffffffff\n        /* \"#utility.yul\":839:844   */\n      dup3\n        /* \"#utility.yul\":835:889   */\n      and\n        /* \"#utility.yul\":824:889   */\n      swap1\n      pop\n        /* \"#utility.yul\":769:895   */\n      swap2\n      swap1\n      pop\n      jump\t// out\n        /* \"#utility.yul\":901:997   */\n    tag_101:\n        /* \"#utility.yul\":938:945   */\n      0x00\n        /* \"#utility.yul\":967:991   */\n      tag_137\n        /* \"#utility.yul\":985:990   */\n      dup3\n        /* \"#utility.yul\":967:991   */\n      tag_100\n      jump\t// in\n    tag_137:\n        /* \"#utility.yul\":956:991   */\n      swap1\n      pop\n        /* \"#utility.yul\":901:997   */\n      swap2\n      swap1\n      pop\n      jump\t// out\n        /* \"#utility.yul\":1003:1125   */\n    tag_102:\n        /* \"#utility.yul\":1076:1100   */\n      tag_139\n        /* \"#utility.yul\":1094:1099   */\n      dup2\n        /* \"#utility.yul\":1076:1100   */\n      tag_101\n      jump\t// in\n    tag_139:\n        /* \"#utility.yul\":1069:1074   */\n      dup2\n        /* \"#utility.yul\":1066:1101   */\n      eq\n        /* \"#utility.yul\":1056:1119   */\n      tag_140\n      jumpi\n        /* \"#utility.yul\":1115:1116   */\n      0x00\n        /* \"#utility.yul\":1112:1113   */\n      dup1\n        /* \"#utility.yul\":1105:1117   */\n      revert\n        /* \"#utility.yul\":1056:1119   */\n    tag_140:\n        /* \"#utility.yul\":1003:1125   */\n      pop\n      jump\t// out\n        /* \"#utility.yul\":1131:1270   */\n    tag_103:\n        /* \"#utility.yul\":1177:1182   */\n      0x00\n        /* \"#utility.yul\":1215:1221   */\n      dup2\n        /* \"#utility.yul\":1202:1222   */\n      calldataload\n        /* \"#utility.yul\":1193:1222   */\n      swap1\n      pop\n        /* \"#utility.yul\":1231:1264   */\n      tag_142\n        /* \"#utility.yul\":1258:1263   */\n      dup2\n        /* \"#utility.yul\":1231:1264   */\n      tag_102\n      jump\t// in\n    tag_142:\n        /* \"#utility.yul\":1131:1270   */\n      swap3\n      swap2\n      pop\n      pop\n      jump\t// out\n        /* \"#utility.yul\":1276:1605   */\n    tag_19:\n        /* \"#utility.yul\":1335:1341   */\n      0x00\n        /* \"#utility.yul\":1384:1386   */\n      0x20\n        /* \"#utility.yul\":1372:1381   */\n      dup3\n        /* \"#utility.yul\":1363:1370   */\n      dup5\n        /* \"#utility.yul\":1359:1382   */\n      sub\n        /* \"#utility.yul\":1355:1387   */\n      slt\n        /* \"#utility.yul\":1352:1471   */\n      iszero\n      tag_144\n      jumpi\n        /* \"#utility.yul\":1390:1469   */\n      tag_145\n      tag_98\n      jump\t// in\n    tag_145:\n        /* \"#utility.yul\":1352:1471   */\n    tag_144:\n        /* \"#utility.yul\":1510:1511   */\n      0x00\n        /* \"#utility.yul\":1535:1588   */\n      tag_146\n        /* \"#utility.yul\":1580:1587   */\n      dup5\n        /* \"#utility.yul\":1571:1577   */\n      dup3\n        /* \"#utility.yul\":1560:1569   */\n      dup6\n        /* \"#utility.yul\":1556:1578   */\n      add\n        /* \"#utility.yul\":1535:1588   */\n      tag_103\n      jump\t// in\n    tag_146:\n        /* \"#utility.yul\":1525:1588   */\n      swap2\n      pop\n        /* \"#utility.yul\":1481:1598   */\n      pop\n        /* \"#utility.yul\":1276:1605   */\n      swap3\n      swap2\n      pop\n      pop\n      jump\t// out\n        /* \"#utility.yul\":1611:1729   */\n    tag_104:\n        /* \"#utility.yul\":1698:1722   */\n      tag_148\n        /* \"#utility.yul\":1716:1721   */\n      dup2\n        /* \"#utility.yul\":1698:1722   */\n      tag_101\n      jump\t// in\n    tag_148:\n        /* \"#utility.yul\":1693:1696   */\n      dup3\n        /* \"#utility.yul\":1686:1723   */\n      mstore\n        /* \"#utility.yul\":1611:1729   */\n      pop\n      pop\n      jump\t// out\n        /* \"#utility.yul\":1735:1957   */\n    tag_26:\n        /* \"#utility.yul\":1828:1832   */\n      0x00\n        /* \"#utility.yul\":1866:1868   */\n      0x20\n        /* \"#utility.yul\":1855:1864   */\n      dup3\n        /* \"#utility.yul\":1851:1869   */\n      add\n        /* \"#utility.yul\":1843:1869   */\n      swap1\n      pop\n        /* \"#utility.yul\":1879:1950   */\n      tag_150\n        /* \"#utility.yul\":1947:1948   */\n      0x00\n        /* \"#utility.yul\":1936:1945   */\n      dup4\n        /* \"#utility.yul\":1932:1949   */\n      add\n        /* \"#utility.yul\":1923:1929   */\n      dup5\n        /* \"#utility.yul\":1879:1950   */\n      tag_104\n      jump\t// in\n    tag_150:\n        /* \"#utility.yul\":1735:1957   */\n      swap3\n      swap2\n      pop\n      pop\n      jump\t// out\n        /* \"#utility.yul\":1963:2085   */\n    tag_105:\n        /* \"#utility.yul\":2036:2060   */\n      tag_152\n        /* \"#utility.yul\":2054:2059   */\n      dup2\n        /* \"#utility.yul\":2036:2060   */\n      tag_95\n      jump\t// in\n    tag_152:\n        /* \"#utility.yul\":2029:2034   */\n      dup2\n        /* \"#utility.yul\":2026:2061   */\n      eq\n        /* \"#utility.yul\":2016:2079   */\n      tag_153\n      jumpi\n        /* \"#utility.yul\":2075:2076   */\n      0x00\n        /* \"#utility.yul\":2072:2073   */\n      dup1\n        /* \"#utility.yul\":2065:2077   */\n      revert\n        /* \"#utility.yul\":2016:2079   */\n    tag_153:\n        /* \"#utility.yul\":1963:2085   */\n      pop\n      jump\t// out\n        /* \"#utility.yul\":2091:2230   */\n    tag_106:\n        /* \"#utility.yul\":2137:2142   */\n      0x00\n        /* \"#utility.yul\":2175:2181   */\n      dup2\n        /* \"#utility.yul\":2162:2182   */\n      calldataload\n        /* \"#utility.yul\":2153:2182   */\n      swap1\n      pop\n        /* \"#utility.yul\":2191:2224   */\n      tag_155\n        /* \"#utility.yul\":2218:2223   */\n      dup2\n        /* \"#utility.yul\":2191:2224   */\n      tag_105\n      jump\t// in\n    tag_155:\n        /* \"#utility.yul\":2091:2230   */\n      swap3\n      swap2\n      pop\n      pop\n      jump\t// out\n        /* \"#utility.yul\":2236:2565   */\n    tag_32:\n        /* \"#utility.yul\":2295:2301   */\n      0x00\n        /* \"#utility.yul\":2344:2346   */\n      0x20\n        /* \"#utility.yul\":2332:2341   */\n      dup3\n        /* \"#utility.yul\":2323:2330   */\n      dup5\n        /* \"#utility.yul\":2319:2342   */\n      sub\n        /* \"#utility.yul\":2315:2347   */\n      slt\n        /* \"#utility.yul\":2312:2431   */\n      iszero\n      tag_157\n      jumpi\n        /* \"#utility.yul\":2350:2429   */\n      tag_158\n      tag_98\n      jump\t// in\n    tag_158:\n        /* \"#utility.yul\":2312:2431   */\n    tag_157:\n        /* \"#utility.yul\":2470:2471   */\n      0x00\n        /* \"#utility.yul\":2495:2548   */\n      tag_159\n        /* \"#utility.yul\":2540:2547   */\n      dup5\n        /* \"#utility.yul\":2531:2537   */\n      dup3\n        /* \"#utility.yul\":2520:2529   */\n      dup6\n        /* \"#utility.yul\":2516:2538   */\n      add\n        /* \"#utility.yul\":2495:2548   */\n      tag_106\n      jump\t// in\n    tag_159:\n        /* \"#utility.yul\":2485:2548   */\n      swap2\n      pop\n        /* \"#utility.yul\":2441:2558   */\n      pop\n        /* \"#utility.yul\":2236:2565   */\n      swap3\n      swap2\n      pop\n      pop\n      jump\t// out\n        /* \"#utility.yul\":2571:2740   */\n    tag_107:\n        /* \"#utility.yul\":2655:2666   */\n      0x00\n        /* \"#utility.yul\":2689:2695   */\n      dup3\n        /* \"#utility.yul\":2684:2687   */\n      dup3\n        /* \"#utility.yul\":2677:2696   */\n      mstore\n        /* \"#utility.yul\":2729:2733   */\n      0x20\n        /* \"#utility.yul\":2724:2727   */\n      dup3\n        /* \"#utility.yul\":2720:2734   */\n      add\n        /* \"#utility.yul\":2705:2734   */\n      swap1\n      pop\n        /* \"#utility.yul\":2571:2740   */\n      swap3\n      swap2\n      pop\n      pop\n      jump\t// out\n        /* \"#utility.yul\":2746:2916   */\n    tag_108:\n        /* \"#utility.yul\":2886:2908   */\n      0x53656e646572206973206e6f74206f776e657221000000000000000000000000\n        /* \"#utility.yul\":2882:2883   */\n      0x00\n        /* \"#utility.yul\":2874:2880   */\n      dup3\n        /* \"#utility.yul\":2870:2884   */\n      add\n        /* \"#utility.yul\":2863:2909   */\n      mstore\n        /* \"#utility.yul\":2746:2916   */\n      pop\n      jump\t// out\n        /* \"#utility.yul\":2922:3288   */\n    tag_109:\n        /* \"#utility.yul\":3064:3067   */\n      0x00\n        /* \"#utility.yul\":3085:3152   */\n      tag_163\n        /* \"#utility.yul\":3149:3151   */\n      0x14\n        /* \"#utility.yul\":3144:3147   */\n      dup4\n        /* \"#utility.yul\":3085:3152   */\n      tag_107\n      jump\t// in\n    tag_163:\n        /* \"#utility.yul\":3078:3152   */\n      swap2\n      pop\n        /* \"#utility.yul\":3161:3254   */\n      tag_164\n        /* \"#utility.yul\":3250:3253   */\n      dup3\n        /* \"#utility.yul\":3161:3254   */\n      tag_108\n      jump\t// in\n    tag_164:\n        /* \"#utility.yul\":3279:3281   */\n      0x20\n        /* \"#utility.yul\":3274:3277   */\n      dup3\n        /* \"#utility.yul\":3270:3282   */\n      add\n        /* \"#utility.yul\":3263:3282   */\n      swap1\n      pop\n        /* \"#utility.yul\":2922:3288   */\n      swap2\n      swap1\n      pop\n      jump\t// out\n        /* \"#utility.yul\":3294:3713   */\n    tag_38:\n        /* \"#utility.yul\":3460:3464   */\n      0x00\n        /* \"#utility.yul\":3498:3500   */\n      0x20\n        /* \"#utility.yul\":3487:3496   */\n      dup3\n        /* \"#utility.yul\":3483:3501   */\n      add\n        /* \"#utility.yul\":3475:3501   */\n      swap1\n      pop\n        /* \"#utility.yul\":3547:3556   */\n      dup2\n        /* \"#utility.yul\":3541:3545   */\n      dup2\n        /* \"#utility.yul\":3537:3557   */\n      sub\n        /* \"#utility.yul\":3533:3534   */\n      0x00\n        /* \"#utility.yul\":3522:3531   */\n      dup4\n        /* \"#utility.yul\":3518:3535   */\n      add\n        /* \"#utility.yul\":3511:3558   */\n      mstore\n        /* \"#utility.yul\":3575:3706   */\n      tag_166\n        /* \"#utility.yul\":3701:3705   */\n      dup2\n        /* \"#utility.yul\":3575:3706   */\n      tag_109\n      jump\t// in\n    tag_166:\n        /* \"#utility.yul\":3567:3706   */\n      swap1\n      pop\n        /* \"#utility.yul\":3294:3713   */\n      swap2\n      swap1\n      pop\n      jump\t// out\n        /* \"#utility.yul\":3719:3899   */\n    tag_45:\n        /* \"#utility.yul\":3767:3844   */\n      0x4e487b7100000000000000000000000000000000000000000000000000000000\n        /* \"#utility.yul\":3764:3765   */\n      0x00\n        /* \"#utility.yul\":3757:3845   */\n      mstore\n        /* \"#utility.yul\":3864:3868   */\n      0x32\n        /* \"#utility.yul\":3861:3862   */\n      0x04\n        /* \"#utility.yul\":3854:3869   */\n      mstore\n        /* \"#utility.yul\":3888:3892   */\n      0x24\n        /* \"#utility.yul\":3885:3886   */\n      0x00\n        /* \"#utility.yul\":3878:3893   */\n      revert\n        /* \"#utility.yul\":3905:4085   */\n    tag_110:\n        /* \"#utility.yul\":3953:4030   */\n      0x4e487b7100000000000000000000000000000000000000000000000000000000\n        /* \"#utility.yul\":3950:3951   */\n      0x00\n        /* \"#utility.yul\":3943:4031   */\n      mstore\n        /* \"#utility.yul\":4050:4054   */\n      0x11\n        /* \"#utility.yul\":4047:4048   */\n      0x04\n        /* \"#utility.yul\":4040:4055   */\n      mstore\n        /* \"#utility.yul\":4074:4078   */\n      0x24\n        /* \"#utility.yul\":4071:4072   */\n      0x00\n        /* \"#utility.yul\":4064:4079   */\n      revert\n        /* \"#utility.yul\":4091:4324   */\n    tag_48:\n        /* \"#utility.yul\":4130:4133   */\n      0x00\n        /* \"#utility.yul\":4153:4177   */\n      tag_170\n        /* \"#utility.yul\":4171:4176   */\n      dup3\n        /* \"#utility.yul\":4153:4177   */\n      tag_95\n      jump\t// in\n    tag_170:\n        /* \"#utility.yul\":4144:4177   */\n      swap2\n      pop\n        /* \"#utility.yul\":4199:4265   */\n      0xffffffffffffffffffffffffffffffffffffffffffffffffffffffffffffffff\n        /* \"#utility.yul\":4192:4197   */\n      dup3\n        /* \"#utility.yul\":4189:4266   */\n      sub\n        /* \"#utility.yul\":4186:4289   */\n      tag_171\n      jumpi\n        /* \"#utility.yul\":4269:4287   */\n      tag_172\n      tag_110\n      jump\t// in\n    tag_172:\n        /* \"#utility.yul\":4186:4289   */\n    tag_171:\n        /* \"#utility.yul\":4316:4317   */\n      0x01\n        /* \"#utility.yul\":4309:4314   */\n      dup3\n        /* \"#utility.yul\":4305:4318   */\n      add\n        /* \"#utility.yul\":4298:4318   */\n      swap1\n      pop\n        /* \"#utility.yul\":4091:4324   */\n      swap2\n      swap1\n      pop\n      jump\t// out\n        /* \"#utility.yul\":4330:4510   */\n    tag_51:\n        /* \"#utility.yul\":4378:4455   */\n      0x4e487b7100000000000000000000000000000000000000000000000000000000\n        /* \"#utility.yul\":4375:4376   */\n      0x00\n        /* \"#utility.yul\":4368:4456   */\n      mstore\n        /* \"#utility.yul\":4475:4479   */\n      0x41\n        /* \"#utility.yul\":4472:4473   */\n      0x04\n        /* \"#utility.yul\":4465:4480   */\n      mstore\n        /* \"#utility.yul\":4499:4503   */\n      0x24\n        /* \"#utility.yul\":4496:4497   */\n      0x00\n        /* \"#utility.yul\":4489:4504   */\n      revert\n        /* \"#utility.yul\":4516:4663   */\n    tag_111:\n        /* \"#utility.yul\":4617:4628   */\n      0x00\n        /* \"#utility.yul\":4654:4657   */\n      dup2\n        /* \"#utility.yul\":4639:4657   */\n      swap1\n      pop\n        /* \"#utility.yul\":4516:4663   */\n      swap3\n      swap2\n      pop\n      pop\n      jump\t// out\n        /* \"#utility.yul\":4669:4783   */\n    tag_112:\n      pop\n      jump\t// out\n        /* \"#utility.yul\":4789:5187   */\n    tag_113:\n        /* \"#utility.yul\":4948:4951   */\n      0x00\n        /* \"#utility.yul\":4969:5052   */\n      tag_177\n        /* \"#utility.yul\":5050:5051   */\n      0x00\n        /* \"#utility.yul\":5045:5048   */\n      dup4\n        /* \"#utility.yul\":4969:5052   */\n      tag_111\n      jump\t// in\n    tag_177:\n        /* \"#utility.yul\":4962:5052   */\n      swap2\n      pop\n        /* \"#utility.yul\":5061:5154   */\n      tag_178\n        /* \"#utility.yul\":5150:5153   */\n      dup3\n        /* \"#utility.yul\":5061:5154   */\n      tag_112\n      jump\t// in\n    tag_178:\n        /* \"#utility.yul\":5179:5180   */\n      0x00\n        /* \"#utility.yul\":5174:5177   */\n      dup3\n        /* \"#utility.yul\":5170:5181   */\n      add\n        /* \"#utility.yul\":5163:5181   */\n      swap1\n      pop\n        /* \"#utility.yul\":4789:5187   */\n      swap2\n      swap1\n      pop\n      jump\t// out\n        /* \"#utility.yul\":5193:5572   */\n    tag_56:\n        /* \"#utility.yul\":5377:5380   */\n      0x00\n        /* \"#utility.yul\":5399:5546   */\n      tag_180\n        /* \"#utility.yul\":5542:5545   */\n      dup3\n        /* \"#utility.yul\":5399:5546   */\n      tag_113\n      jump\t// in\n    tag_180:\n        /* \"#utility.yul\":5392:5546   */\n      swap2\n      pop\n        /* \"#utility.yul\":5563:5566   */\n      dup2\n        /* \"#utility.yul\":5556:5566   */\n      swap1\n      pop\n        /* \"#utility.yul\":5193:5572   */\n      swap2\n      swap1\n      pop\n      jump\t// out\n        /* \"#utility.yul\":5578:5739   */\n    tag_114:\n        /* \"#utility.yul\":5718:5731   */\n      0x43616c6c206661696c6564000000000000000000000000000000000000000000\n        /* \"#utility.yul\":5714:5715   */\n      0x00\n        /* \"#utility.yul\":5706:5712   */\n      dup3\n        /* \"#utility.yul\":5702:5716   */\n      add\n        /* \"#utility.yul\":5695:5732   */\n      mstore\n        /* \"#utility.yul\":5578:5739   */\n      pop\n      jump\t// out\n        /* \"#utility.yul\":5745:6111   */\n    tag_115:\n        /* \"#utility.yul\":5887:5890   */\n      0x00\n        /* \"#utility.yul\":5908:5975   */\n      tag_183\n        /* \"#utility.yul\":5972:5974   */\n      0x0b\n        /* \"#utility.yul\":5967:5970   */\n      dup4\n        /* \"#utility.yul\":5908:5975   */\n      tag_107\n      jump\t// in\n    tag_183:\n        /* \"#utility.yul\":5901:5975   */\n      swap2\n      pop\n        /* \"#utility.yul\":5984:6077   */\n      tag_184\n        /* \"#utility.yul\":6073:6076   */\n      dup3\n        /* \"#utility.yul\":5984:6077   */\n      tag_114\n      jump\t// in\n    tag_184:\n        /* \"#utility.yul\":6102:6104   */\n      0x20\n        /* \"#utility.yul\":6097:6100   */\n      dup3\n        /* \"#utility.yul\":6093:6105   */\n      add\n        /* \"#utility.yul\":6086:6105   */\n      swap1\n      pop\n        /* \"#utility.yul\":5745:6111   */\n      swap2\n      swap1\n      pop\n      jump\t// out\n        /* \"#utility.yul\":6117:6536   */\n    tag_62:\n        /* \"#utility.yul\":6283:6287   */\n      0x00\n        /* \"#utility.yul\":6321:6323   */\n      0x20\n        /* \"#utility.yul\":6310:6319   */\n      dup3\n        /* \"#utility.yul\":6306:6324   */\n      add\n        /* \"#utility.yul\":6298:6324   */\n      swap1\n      pop\n        /* \"#utility.yul\":6370:6379   */\n      dup2\n        /* \"#utility.yul\":6364:6368   */\n      dup2\n        /* \"#utility.yul\":6360:6380   */\n      sub\n        /* \"#utility.yul\":6356:6357   */\n      0x00\n        /* \"#utility.yul\":6345:6354   */\n      dup4\n        /* \"#utility.yul\":6341:6358   */\n      add\n        /* \"#utility.yul\":6334:6381   */\n      mstore\n        /* \"#utility.yul\":6398:6529   */\n      tag_186\n        /* \"#utility.yul\":6524:6528   */\n      dup2\n        /* \"#utility.yul\":6398:6529   */\n      tag_115\n      jump\t// in\n    tag_186:\n        /* \"#utility.yul\":6390:6529   */\n      swap1\n      pop\n        /* \"#utility.yul\":6117:6536   */\n      swap2\n      swap1\n      pop\n      jump\t// out\n        /* \"#utility.yul\":6542:6714   */\n    tag_116:\n        /* \"#utility.yul\":6682:6706   */\n      0x6469646e20742073656e6420656e6f7567682045544800000000000000000000\n        /* \"#utility.yul\":6678:6679   */\n      0x00\n        /* \"#utility.yul\":6670:6676   */\n      dup3\n        /* \"#utility.yul\":6666:6680   */\n      add\n        /* \"#utility.yul\":6659:6707   */\n      mstore\n        /* \"#utility.yul\":6542:6714   */\n      pop\n      jump\t// out\n        /* \"#utility.yul\":6720:7086   */\n    tag_117:\n        /* \"#utility.yul\":6862:6865   */\n      0x00\n        /* \"#utility.yul\":6883:6950   */\n      tag_189\n        /* \"#utility.yul\":6947:6949   */\n      0x16\n        /* \"#utility.yul\":6942:6945   */\n      dup4\n        /* \"#utility.yul\":6883:6950   */\n      tag_107\n      jump\t// in\n    tag_189:\n        /* \"#utility.yul\":6876:6950   */\n      swap2\n      pop\n        /* \"#utility.yul\":6959:7052   */\n      tag_190\n        /* \"#utility.yul\":7048:7051   */\n      dup3\n        /* \"#utility.yul\":6959:7052   */\n      tag_116\n      jump\t// in\n    tag_190:\n        /* \"#utility.yul\":7077:7079   */\n      0x20\n        /* \"#utility.yul\":7072:7075   */\n      dup3\n        /* \"#utility.yul\":7068:7080   */\n      add\n        /* \"#utility.yul\":7061:7080   */\n      swap1\n      pop\n        /* \"#utility.yul\":6720:7086   */\n      swap2\n      swap1\n      pop\n      jump\t// out\n        /* \"#utility.yul\":7092:7511   */\n    tag_68:\n        /* \"#utility.yul\":7258:7262   */\n      0x00\n        /* \"#utility.yul\":7296:7298   */\n      0x20\n        /* \"#utility.yul\":7285:7294   */\n      dup3\n        /* \"#utility.yul\":7281:7299   */\n      add\n        /* \"#utility.yul\":7273:7299   */\n      swap1\n      pop\n        /* \"#utility.yul\":7345:7354   */\n      dup2\n        /* \"#utility.yul\":7339:7343   */\n      dup2\n        /* \"#utility.yul\":7335:7355   */\n      sub\n        /* \"#utility.yul\":7331:7332   */\n      0x00\n        /* \"#utility.yul\":7320:7329   */\n      dup4\n        /* \"#utility.yul\":7316:7333   */\n      add\n        /* \"#utility.yul\":7309:7356   */\n      mstore\n        /* \"#utility.yul\":7373:7504   */\n      tag_192\n        /* \"#utility.yul\":7499:7503   */\n      dup2\n        /* \"#utility.yul\":7373:7504   */\n      tag_117\n      jump\t// in\n    tag_192:\n        /* \"#utility.yul\":7365:7504   */\n      swap1\n      pop\n        /* \"#utility.yul\":7092:7511   */\n      swap2\n      swap1\n      pop\n      jump\t// out\n        /* \"#utility.yul\":7517:7708   */\n    tag_71:\n        /* \"#utility.yul\":7557:7560   */\n      0x00\n        /* \"#utility.yul\":7576:7596   */\n      tag_194\n        /* \"#utility.yul\":7594:7595   */\n      dup3\n        /* \"#utility.yul\":7576:7596   */\n      tag_95\n      jump\t// in\n    tag_194:\n        /* \"#utility.yul\":7571:7596   */\n      swap2\n      pop\n        /* \"#utility.yul\":7610:7630   */\n      tag_195\n        /* \"#utility.yul\":7628:7629   */\n      dup4\n        /* \"#utility.yul\":7610:7630   */\n      tag_95\n      jump\t// in\n    tag_195:\n        /* \"#utility.yul\":7605:7630   */\n      swap3\n      pop\n        /* \"#utility.yul\":7653:7654   */\n      dup3\n        /* \"#utility.yul\":7650:7651   */\n      dup3\n        /* \"#utility.yul\":7646:7655   */\n      add\n        /* \"#utility.yul\":7639:7655   */\n      swap1\n      pop\n        /* \"#utility.yul\":7674:7677   */\n      dup1\n        /* \"#utility.yul\":7671:7672   */\n      dup3\n        /* \"#utility.yul\":7668:7678   */\n      gt\n        /* \"#utility.yul\":7665:7701   */\n      iszero\n      tag_196\n      jumpi\n        /* \"#utility.yul\":7681:7699   */\n      tag_197\n      tag_110\n      jump\t// in\n    tag_197:\n        /* \"#utility.yul\":7665:7701   */\n    tag_196:\n        /* \"#utility.yul\":7517:7708   */\n      swap3\n      swap2\n      pop\n      pop\n      jump\t// out\n        /* \"#utility.yul\":7714:8124   */\n    tag_78:\n        /* \"#utility.yul\":7754:7761   */\n      0x00\n        /* \"#utility.yul\":7777:7797   */\n      tag_199\n        /* \"#utility.yul\":7795:7796   */\n      dup3\n        /* \"#utility.yul\":7777:7797   */\n      tag_95\n      jump\t// in\n    tag_199:\n        /* \"#utility.yul\":7772:7797   */\n      swap2\n      pop\n        /* \"#utility.yul\":7811:7831   */\n      tag_200\n        /* \"#utility.yul\":7829:7830   */\n      dup4\n        /* \"#utility.yul\":7811:7831   */\n      tag_95\n      jump\t// in\n    tag_200:\n        /* \"#utility.yul\":7806:7831   */\n      swap3\n      pop\n        /* \"#utility.yul\":7866:7867   */\n      dup3\n        /* \"#utility.yul\":7863:7864   */\n      dup3\n        /* \"#utility.yul\":7859:7868   */\n      mul\n        /* \"#utility.yul\":7888:7918   */\n      tag_201\n        /* \"#utility.yul\":7906:7917   */\n      dup2\n        /* \"#utility.yul\":7888:7918   */\n      tag_95\n      jump\t// in\n    tag_201:\n        /* \"#utility.yul\":7877:7918   */\n      swap2\n      pop\n        /* \"#utility.yul\":8067:8068   */\n      dup3\n        /* \"#utility.yul\":8058:8065   */\n      dup3\n        /* \"#utility.yul\":8054:8069   */\n      div\n        /* \"#utility.yul\":8051:8052   */\n      dup5\n        /* \"#utility.yul\":8048:8070   */\n      eq\n        /* \"#utility.yul\":8028:8029   */\n      dup4\n        /* \"#utility.yul\":8021:8030   */\n      iszero\n        /* \"#utility.yul\":8001:8084   */\n      or\n        /* \"#utility.yul\":7978:8117   */\n      tag_202\n      jumpi\n        /* \"#utility.yul\":8097:8115   */\n      tag_203\n      tag_110\n      jump\t// in\n    tag_203:\n        /* \"#utility.yul\":7978:8117   */\n    tag_202:\n        /* \"#utility.yul\":7762:8124   */\n      pop\n        /* \"#utility.yul\":7714:8124   */\n      swap3\n      swap2\n      pop\n      pop\n      jump\t// out\n        /* \"#utility.yul\":8130:8310   */\n    tag_118:\n        /* \"#utility.yul\":8178:8255   */\n      0x4e487b7100000000000000000000000000000000000000000000000000000000\n        /* \"#utility.yul\":8175:8176   */\n      0x00\n        /* \"#utility.yul\":8168:8256   */\n      mstore\n        /* \"#utility.yul\":8275:8279   */\n      0x12\n        /* \"#utility.yul\":8272:8273   */\n      0x04\n        /* \"#utility.yul\":8265:8280   */\n      mstore\n        /* \"#utility.yul\":8299:8303   */\n      0x24\n        /* \"#utility.yul\":8296:8297   */\n      0x00\n        /* \"#utility.yul\":8289:8304   */\n      revert\n        /* \"#utility.yul\":8316:8501   */\n    tag_80:\n        /* \"#utility.yul\":8356:8357   */\n      0x00\n        /* \"#utility.yul\":8373:8393   */\n      tag_206\n        /* \"#utility.yul\":8391:8392   */\n      dup3\n        /* \"#utility.yul\":8373:8393   */\n      tag_95\n      jump\t// in\n    tag_206:\n        /* \"#utility.yul\":8368:8393   */\n      swap2\n      pop\n        /* \"#utility.yul\":8407:8427   */\n      tag_207\n        /* \"#utility.yul\":8425:8426   */\n      dup4\n        /* \"#utility.yul\":8407:8427   */\n      tag_95\n      jump\t// in\n    tag_207:\n        /* \"#utility.yul\":8402:8427   */\n      swap3\n      pop\n        /* \"#utility.yul\":8446:8447   */\n      dup3\n        /* \"#utility.yul\":8436:8471   */\n      tag_208\n      jumpi\n        /* \"#utility.yul\":8451:8469   */\n      tag_209\n      tag_118\n      jump\t// in\n    tag_209:\n        /* \"#utility.yul\":8436:8471   */\n    tag_208:\n        /* \"#utility.yul\":8493:8494   */\n      dup3\n        /* \"#utility.yul\":8490:8491   */\n      dup3\n        /* \"#utility.yul\":8486:8495   */\n      div\n        /* \"#utility.yul\":8481:8495   */\n      swap1\n      pop\n        /* \"#utility.yul\":8316:8501   */\n      swap3\n      swap2\n      pop\n      pop\n      jump\t// out\n        /* \"#utility.yul\":8507:8612   */\n    tag_119:\n        /* \"#utility.yul\":8543:8550   */\n      0x00\n        /* \"#utility.yul\":8583:8605   */\n      0xffffffffffffffffffff\n        /* \"#utility.yul\":8576:8581   */\n      dup3\n        /* \"#utility.yul\":8572:8606   */\n      and\n        /* \"#utility.yul\":8561:8606   */\n      swap1\n      pop\n        /* \"#utility.yul\":8507:8612   */\n      swap2\n      swap1\n      pop\n      jump\t// out\n        /* \"#utility.yul\":8618:8738   */\n    tag_120:\n        /* \"#utility.yul\":8690:8713   */\n      tag_212\n        /* \"#utility.yul\":8707:8712   */\n      dup2\n        /* \"#utility.yul\":8690:8713   */\n      tag_119\n      jump\t// in\n    tag_212:\n        /* \"#utility.yul\":8683:8688   */\n      dup2\n        /* \"#utility.yul\":8680:8714   */\n      eq\n        /* \"#utility.yul\":8670:8732   */\n      tag_213\n      jumpi\n        /* \"#utility.yul\":8728:8729   */\n      0x00\n        /* \"#utility.yul\":8725:8726   */\n      dup1\n        /* \"#utility.yul\":8718:8730   */\n      revert\n        /* \"#utility.yul\":8670:8732   */\n    tag_213:\n        /* \"#utility.yul\":8618:8738   */\n      pop\n      jump\t// out\n        /* \"#utility.yul\":8744:8885   */\n    tag_121:\n        /* \"#utility.yul\":8800:8805   */\n      0x00\n        /* \"#utility.yul\":8831:8837   */\n      dup2\n        /* \"#utility.yul\":8825:8838   */\n      mload\n        /* \"#utility.yul\":8816:8838   */\n      swap1\n      pop\n        /* \"#utility.yul\":8847:8879   */\n      tag_215\n        /* \"#utility.yul\":8873:8878   */\n      dup2\n        /* \"#utility.yul\":8847:8879   */\n      tag_120\n      jump\t// in\n    tag_215:\n        /* \"#utility.yul\":8744:8885   */\n      swap3\n      swap2\n      pop\n      pop\n      jump\t// out\n        /* \"#utility.yul\":8891:8967   */\n    tag_122:\n        /* \"#utility.yul\":8927:8934   */\n      0x00\n        /* \"#utility.yul\":8956:8961   */\n      dup2\n        /* \"#utility.yul\":8945:8961   */\n      swap1\n      pop\n        /* \"#utility.yul\":8891:8967   */\n      swap2\n      swap1\n      pop\n      jump\t// out\n        /* \"#utility.yul\":8973:9093   */\n    tag_123:\n        /* \"#utility.yul\":9045:9068   */\n      tag_218\n        /* \"#utility.yul\":9062:9067   */\n      dup2\n        /* \"#utility.yul\":9045:9068   */\n      tag_122\n      jump\t// in\n    tag_218:\n        /* \"#utility.yul\":9038:9043   */\n      dup2\n        /* \"#utility.yul\":9035:9069   */\n      eq\n        /* \"#utility.yul\":9025:9087   */\n      tag_219\n      jumpi\n        /* \"#utility.yul\":9083:9084   */\n      0x00\n        /* \"#utility.yul\":9080:9081   */\n      dup1\n        /* \"#utility.yul\":9073:9085   */\n      revert\n        /* \"#utility.yul\":9025:9087   */\n    tag_219:\n        /* \"#utility.yul\":8973:9093   */\n      pop\n      jump\t// out\n        /* \"#utility.yul\":9099:9240   */\n    tag_124:\n        /* \"#utility.yul\":9155:9160   */\n      0x00\n        /* \"#utility.yul\":9186:9192   */\n      dup2\n        /* \"#utility.yul\":9180:9193   */\n      mload\n        /* \"#utility.yul\":9171:9193   */\n      swap1\n      pop\n        /* \"#utility.yul\":9202:9234   */\n      tag_221\n        /* \"#utility.yul\":9228:9233   */\n      dup2\n        /* \"#utility.yul\":9202:9234   */\n      tag_123\n      jump\t// in\n    tag_221:\n        /* \"#utility.yul\":9099:9240   */\n      swap3\n      swap2\n      pop\n      pop\n      jump\t// out\n        /* \"#utility.yul\":9246:9389   */\n    tag_125:\n        /* \"#utility.yul\":9303:9308   */\n      0x00\n        /* \"#utility.yul\":9334:9340   */\n      dup2\n        /* \"#utility.yul\":9328:9341   */\n      mload\n        /* \"#utility.yul\":9319:9341   */\n      swap1\n      pop\n        /* \"#utility.yul\":9350:9383   */\n      tag_223\n        /* \"#utility.yul\":9377:9382   */\n      dup2\n        /* \"#utility.yul\":9350:9383   */\n      tag_105\n      jump\t// in\n    tag_223:\n        /* \"#utility.yul\":9246:9389   */\n      swap3\n      swap2\n      pop\n      pop\n      jump\t// out\n        /* \"#utility.yul\":9395:10366   */\n    tag_85:\n        /* \"#utility.yul\":9498:9504   */\n      0x00\n        /* \"#utility.yul\":9506:9512   */\n      dup1\n        /* \"#utility.yul\":9514:9520   */\n      0x00\n        /* \"#utility.yul\":9522:9528   */\n      dup1\n        /* \"#utility.yul\":9530:9536   */\n      0x00\n        /* \"#utility.yul\":9579:9582   */\n      0xa0\n        /* \"#utility.yul\":9567:9576   */\n      dup7\n        /* \"#utility.yul\":9558:9565   */\n      dup9\n        /* \"#utility.yul\":9554:9577   */\n      sub\n        /* \"#utility.yul\":9550:9583   */\n      slt\n        /* \"#utility.yul\":9547:9667   */\n      iszero\n      tag_225\n      jumpi\n        /* \"#utility.yul\":9586:9665   */\n      tag_226\n      tag_98\n      jump\t// in\n    tag_226:\n        /* \"#utility.yul\":9547:9667   */\n    tag_225:\n        /* \"#utility.yul\":9706:9707   */\n      0x00\n        /* \"#utility.yul\":9731:9794   */\n      tag_227\n        /* \"#utility.yul\":9786:9793   */\n      dup9\n        /* \"#utility.yul\":9777:9783   */\n      dup3\n        /* \"#utility.yul\":9766:9775   */\n      dup10\n        /* \"#utility.yul\":9762:9784   */\n      add\n        /* \"#utility.yul\":9731:9794   */\n      tag_121\n      jump\t// in\n    tag_227:\n        /* \"#utility.yul\":9721:9794   */\n      swap6\n      pop\n        /* \"#utility.yul\":9677:9804   */\n      pop\n        /* \"#utility.yul\":9843:9845   */\n      0x20\n        /* \"#utility.yul\":9869:9932   */\n      tag_228\n        /* \"#utility.yul\":9924:9931   */\n      dup9\n        /* \"#utility.yul\":9915:9921   */\n      dup3\n        /* \"#utility.yul\":9904:9913   */\n      dup10\n        /* \"#utility.yul\":9900:9922   */\n      add\n        /* \"#utility.yul\":9869:9932   */\n      tag_124\n      jump\t// in\n    tag_228:\n        /* \"#utility.yul\":9859:9932   */\n      swap5\n      pop\n        /* \"#utility.yul\":9814:9942   */\n      pop\n        /* \"#utility.yul\":9981:9983   */\n      0x40\n        /* \"#utility.yul\":10007:10071   */\n      tag_229\n        /* \"#utility.yul\":10063:10070   */\n      dup9\n        /* \"#utility.yul\":10054:10060   */\n      dup3\n        /* \"#utility.yul\":10043:10052   */\n      dup10\n        /* \"#utility.yul\":10039:10061   */\n      add\n        /* \"#utility.yul\":10007:10071   */\n      tag_125\n      jump\t// in\n    tag_229:\n        /* \"#utility.yul\":9997:10071   */\n      swap4\n      pop\n        /* \"#utility.yul\":9952:10081   */\n      pop\n        /* \"#utility.yul\":10120:10122   */\n      0x60\n        /* \"#utility.yul\":10146:10210   */\n      tag_230\n        /* \"#utility.yul\":10202:10209   */\n      dup9\n        /* \"#utility.yul\":10193:10199   */\n      dup3\n        /* \"#utility.yul\":10182:10191   */\n      dup10\n        /* \"#utility.yul\":10178:10200   */\n      add\n        /* \"#utility.yul\":10146:10210   */\n      tag_125\n      jump\t// in\n    tag_230:\n        /* \"#utility.yul\":10136:10210   */\n      swap3\n      pop\n        /* \"#utility.yul\":10091:10220   */\n      pop\n        /* \"#utility.yul\":10259:10262   */\n      0x80\n        /* \"#utility.yul\":10286:10349   */\n      tag_231\n        /* \"#utility.yul\":10341:10348   */\n      dup9\n        /* \"#utility.yul\":10332:10338   */\n      dup3\n        /* \"#utility.yul\":10321:10330   */\n      dup10\n        /* \"#utility.yul\":10317:10339   */\n      add\n        /* \"#utility.yul\":10286:10349   */\n      tag_121\n      jump\t// in\n    tag_231:\n        /* \"#utility.yul\":10276:10349   */\n      swap2\n      pop\n        /* \"#utility.yul\":10230:10359   */\n      pop\n        /* \"#utility.yul\":9395:10366   */\n      swap3\n      swap6\n      pop\n      swap3\n      swap6\n      swap1\n      swap4\n      pop\n      jump\t// out\n        /* \"#utility.yul\":10372:10928   */\n    tag_87:\n        /* \"#utility.yul\":10411:10418   */\n      0x00\n        /* \"#utility.yul\":10434:10453   */\n      tag_233\n        /* \"#utility.yul\":10451:10452   */\n      dup3\n        /* \"#utility.yul\":10434:10453   */\n      tag_122\n      jump\t// in\n    tag_233:\n        /* \"#utility.yul\":10429:10453   */\n      swap2\n      pop\n        /* \"#utility.yul\":10467:10486   */\n      tag_234\n        /* \"#utility.yul\":10484:10485   */\n      dup4\n        /* \"#utility.yul\":10467:10486   */\n      tag_122\n      jump\t// in\n    tag_234:\n        /* \"#utility.yul\":10462:10486   */\n      swap3\n      pop\n        /* \"#utility.yul\":10521:10522   */\n      dup3\n        /* \"#utility.yul\":10518:10519   */\n      dup3\n        /* \"#utility.yul\":10514:10523   */\n      mul\n        /* \"#utility.yul\":10543:10572   */\n      tag_235\n        /* \"#utility.yul\":10560:10571   */\n      dup2\n        /* \"#utility.yul\":10543:10572   */\n      tag_122\n      jump\t// in\n    tag_235:\n        /* \"#utility.yul\":10532:10572   */\n      swap2\n      pop\n        /* \"#utility.yul\":10630:10696   */\n      0x8000000000000000000000000000000000000000000000000000000000000000\n        /* \"#utility.yul\":10627:10628   */\n      dup5\n        /* \"#utility.yul\":10624:10697   */\n      eq\n        /* \"#utility.yul\":10620:10621   */\n      0x00\n        /* \"#utility.yul\":10617:10618   */\n      dup5\n        /* \"#utility.yul\":10613:10622   */\n      slt\n        /* \"#utility.yul\":10609:10698   */\n      and\n        /* \"#utility.yul\":10606:10721   */\n      iszero\n      tag_236\n      jumpi\n        /* \"#utility.yul\":10701:10719   */\n      tag_237\n      tag_110\n      jump\t// in\n    tag_237:\n        /* \"#utility.yul\":10606:10721   */\n    tag_236:\n        /* \"#utility.yul\":10871:10872   */\n      dup3\n        /* \"#utility.yul\":10862:10869   */\n      dup3\n        /* \"#utility.yul\":10857:10873   */\n      sdiv\n        /* \"#utility.yul\":10854:10855   */\n      dup5\n        /* \"#utility.yul\":10851:10874   */\n      eq\n        /* \"#utility.yul\":10831:10832   */\n      dup4\n        /* \"#utility.yul\":10824:10833   */\n      iszero\n        /* \"#utility.yul\":10804:10888   */\n      or\n        /* \"#utility.yul\":10781:10921   */\n      tag_238\n      jumpi\n        /* \"#utility.yul\":10901:10919   */\n      tag_239\n      tag_110\n      jump\t// in\n    tag_239:\n        /* \"#utility.yul\":10781:10921   */\n    tag_238:\n        /* \"#utility.yul\":10419:10928   */\n      pop\n        /* \"#utility.yul\":10372:10928   */\n      swap3\n      swap2\n      pop\n      pop\n      jump\t// out\n\n    auxdata: 0xa26469706673582212207f31a819a7b7baf86c93b2573ab376dccf30ae56483e291b55e2c1c32bfc624b64736f6c63430008120033\n}\n",
				"bytecode": {
					"linkReferences": {},
					"object": "6080604052674563918244f4000060005534801561001c57600080fd5b5033600360006101000a81548173ffffffffffffffffffffffffffffffffffffffff021916908373ffffffffffffffffffffffffffffffffffffffff160217905550610d278061006d6000396000f3fe6080604052600436106100555760003560e01c8063098de8201461005a5780633ccfd60b146100855780633e47d6f31461009c5780638da5cb5b146100d9578063b60d428814610104578063dc0d3dff1461010e575b600080fd5b34801561006657600080fd5b5061006f61014b565b60405161007c91906106fd565b60405180910390f35b34801561009157600080fd5b5061009a610151565b005b3480156100a857600080fd5b506100c360048036038101906100be919061077b565b61039d565b6040516100d091906106fd565b60405180910390f35b3480156100e557600080fd5b506100ee6103b5565b6040516100fb91906107b7565b60405180910390f35b61010c6103db565b005b34801561011a57600080fd5b50610135600480360381019061013091906107fe565b61051b565b60405161014291906107b7565b60405180910390f35b60005481565b600360009054906101000a900473ffffffffffffffffffffffffffffffffffffffff1673ffffffffffffffffffffffffffffffffffffffff163373ffffffffffffffffffffffffffffffffffffffff16146101e1576040517f08c379a00000000000000000000000000000000000000000000000000000000081526004016101d890610888565b60405180910390fd5b60005b60018054905081101561028d57600060018281548110610207576102066108a8565b5b9060005260206000200160009054906101000a900473ffffffffffffffffffffffffffffffffffffffff1690506000600260008373ffffffffffffffffffffffffffffffffffffffff1673ffffffffffffffffffffffffffffffffffffffff1681526020019081526020016000208190555050808061028590610906565b9150506101e4565b50600067ffffffffffffffff8111156102a9576102a861094e565b5b6040519080825280602002602001820160405280156102d75781602001602082028036833780820191505090505b50600190805190602001906102ed92919061063d565b5060003373ffffffffffffffffffffffffffffffffffffffff1647604051610314906109ae565b60006040518083038185875af1925050503d8060008114610351576040519150601f19603f3d011682016040523d82523d6000602084013e610356565b606091505b505090508061039a576040517f08c379a000000000000000000000000000000000000000000000000000000000815260040161039190610a0f565b60405180910390fd5b50565b60026020528060005260406000206000915090505481565b600360009054906101000a900473ffffffffffffffffffffffffffffffffffffffff1681565b6000546103e73461055a565b1015610428576040517f08c379a000000000000000000000000000000000000000000000000000000000815260040161041f90610a7b565b60405180910390fd5b6001339080600181540180825580915050600190039060005260206000200160009091909190916101000a81548173ffffffffffffffffffffffffffffffffffffffff021916908373ffffffffffffffffffffffffffffffffffffffff16021790555034600260003373ffffffffffffffffffffffffffffffffffffffff1673ffffffffffffffffffffffffffffffffffffffff168152602001908152602001600020546104d69190610a9b565b600260003373ffffffffffffffffffffffffffffffffffffffff1673ffffffffffffffffffffffffffffffffffffffff16815260200190815260200160002081905550565b6001818154811061052b57600080fd5b906000526020600020016000915054906101000a900473ffffffffffffffffffffffffffffffffffffffff1681565b600080610565610594565b90506000670de0b6b3a7640000848361057e9190610acf565b6105889190610b40565b90508092505050919050565b60008073694aa1769357215de4fac081bf1f309adc325306905060008173ffffffffffffffffffffffffffffffffffffffff1663feaf968c6040518163ffffffff1660e01b815260040160a060405180830381865afa1580156105fb573d6000803e3d6000fd5b505050506040513d601f19601f8201168201806040525081019061061f9190610bfe565b5050509150506402540be400816106369190610c79565b9250505090565b8280548282559060005260206000209081019282156106b6579160200282015b828111156106b55782518260006101000a81548173ffffffffffffffffffffffffffffffffffffffff021916908373ffffffffffffffffffffffffffffffffffffffff1602179055509160200191906001019061065d565b5b5090506106c391906106c7565b5090565b5b808211156106e05760008160009055506001016106c8565b5090565b6000819050919050565b6106f7816106e4565b82525050565b600060208201905061071260008301846106ee565b92915050565b600080fd5b600073ffffffffffffffffffffffffffffffffffffffff82169050919050565b60006107488261071d565b9050919050565b6107588161073d565b811461076357600080fd5b50565b6000813590506107758161074f565b92915050565b60006020828403121561079157610790610718565b5b600061079f84828501610766565b91505092915050565b6107b18161073d565b82525050565b60006020820190506107cc60008301846107a8565b92915050565b6107db816106e4565b81146107e657600080fd5b50565b6000813590506107f8816107d2565b92915050565b60006020828403121561081457610813610718565b5b6000610822848285016107e9565b91505092915050565b600082825260208201905092915050565b7f53656e646572206973206e6f74206f776e657221000000000000000000000000600082015250565b600061087260148361082b565b915061087d8261083c565b602082019050919050565b600060208201905081810360008301526108a181610865565b9050919050565b7f4e487b7100000000000000000000000000000000000000000000000000000000600052603260045260246000fd5b7f4e487b7100000000000000000000000000000000000000000000000000000000600052601160045260246000fd5b6000610911826106e4565b91507fffffffffffffffffffffffffffffffffffffffffffffffffffffffffffffffff8203610943576109426108d7565b5b600182019050919050565b7f4e487b7100000000000000000000000000000000000000000000000000000000600052604160045260246000fd5b600081905092915050565b50565b600061099860008361097d565b91506109a382610988565b600082019050919050565b60006109b98261098b565b9150819050919050565b7f43616c6c206661696c6564000000000000000000000000000000000000000000600082015250565b60006109f9600b8361082b565b9150610a04826109c3565b602082019050919050565b60006020820190508181036000830152610a28816109ec565b9050919050565b7f6469646e20742073656e6420656e6f7567682045544800000000000000000000600082015250565b6000610a6560168361082b565b9150610a7082610a2f565b602082019050919050565b60006020820190508181036000830152610a9481610a58565b9050919050565b6000610aa6826106e4565b9150610ab1836106e4565b9250828201905080821115610ac957610ac86108d7565b5b92915050565b6000610ada826106e4565b9150610ae5836106e4565b9250828202610af3816106e4565b91508282048414831517610b0a57610b096108d7565b5b5092915050565b7f4e487b7100000000000000000000000000000000000000000000000000000000600052601260045260246000fd5b6000610b4b826106e4565b9150610b56836106e4565b925082610b6657610b65610b11565b5b828204905092915050565b600069ffffffffffffffffffff82169050919050565b610b9081610b71565b8114610b9b57600080fd5b50565b600081519050610bad81610b87565b92915050565b6000819050919050565b610bc681610bb3565b8114610bd157600080fd5b50565b600081519050610be381610bbd565b92915050565b600081519050610bf8816107d2565b92915050565b600080600080600060a08688031215610c1a57610c19610718565b5b6000610c2888828901610b9e565b9550506020610c3988828901610bd4565b9450506040610c4a88828901610be9565b9350506060610c5b88828901610be9565b9250506080610c6c88828901610b9e565b9150509295509295909350565b6000610c8482610bb3565b9150610c8f83610bb3565b9250828202610c9d81610bb3565b91507f80000000000000000000000000000000000000000000000000000000000000008414600084121615610cd557610cd46108d7565b5b8282058414831517610cea57610ce96108d7565b5b509291505056fea26469706673582212207f31a819a7b7baf86c93b2573ab376dccf30ae56483e291b55e2c1c32bfc624b64736f6c63430008120033",
					"opcodes": "PUSH1 0x80 PUSH1 0x40 MSTORE PUSH8 0x4563918244F40000 PUSH1 0x0 SSTORE CALLVALUE DUP1 ISZERO PUSH2 0x1C JUMPI PUSH1 0x0 DUP1 REVERT JUMPDEST POP CALLER PUSH1 0x3 PUSH1 0x0 PUSH2 0x100 EXP DUP2 SLOAD DUP2 PUSH20 0xFFFFFFFFFFFFFFFFFFFFFFFFFFFFFFFFFFFFFFFF MUL NOT AND SWAP1 DUP4 PUSH20 0xFFFFFFFFFFFFFFFFFFFFFFFFFFFFFFFFFFFFFFFF AND MUL OR SWAP1 SSTORE POP PUSH2 0xD27 DUP1 PUSH2 0x6D PUSH1 0x0 CODECOPY PUSH1 0x0 RETURN INVALID PUSH1 0x80 PUSH1 0x40 MSTORE PUSH1 0x4 CALLDATASIZE LT PUSH2 0x55 JUMPI PUSH1 0x0 CALLDATALOAD PUSH1 0xE0 SHR DUP1 PUSH4 0x98DE820 EQ PUSH2 0x5A JUMPI DUP1 PUSH4 0x3CCFD60B EQ PUSH2 0x85 JUMPI DUP1 PUSH4 0x3E47D6F3 EQ PUSH2 0x9C JUMPI DUP1 PUSH4 0x8DA5CB5B EQ PUSH2 0xD9 JUMPI DUP1 PUSH4 0xB60D4288 EQ PUSH2 0x104 JUMPI DUP1 PUSH4 0xDC0D3DFF EQ PUSH2 0x10E JUMPI JUMPDEST PUSH1 0x0 DUP1 REVERT JUMPDEST CALLVALUE DUP1 ISZERO PUSH2 0x66 JUMPI PUSH1 0x0 DUP1 REVERT JUMPDEST POP PUSH2 0x6F PUSH2 0x14B JUMP JUMPDEST PUSH1 0x40 MLOAD PUSH2 0x7C SWAP2 SWAP1 PUSH2 0x6FD JUMP JUMPDEST PUSH1 0x40 MLOAD DUP1 SWAP2 SUB SWAP1 RETURN JUMPDEST CALLVALUE DUP1 ISZERO PUSH2 0x91 JUMPI PUSH1 0x0 DUP1 REVERT JUMPDEST POP PUSH2 0x9A PUSH2 0x151 JUMP JUMPDEST STOP JUMPDEST CALLVALUE DUP1 ISZERO PUSH2 0xA8 JUMPI PUSH1 0x0 DUP1 REVERT JUMPDEST POP PUSH2 0xC3 PUSH1 0x4 DUP1 CALLDATASIZE SUB DUP2 ADD SWAP1 PUSH2 0xBE SWAP2 SWAP1 PUSH2 0x77B JUMP JUMPDEST PUSH2 0x39D JUMP JUMPDEST PUSH1 0x40 MLOAD PUSH2 0xD0 SWAP2 SWAP1 PUSH2 0x6FD JUMP JUMPDEST PUSH1 0x40 MLOAD DUP1 SWAP2 SUB SWAP1 RETURN JUMPDEST CALLVALUE DUP1 ISZERO PUSH2 0xE5 JUMPI PUSH1 0x0 DUP1 REVERT JUMPDEST POP PUSH2 0xEE PUSH2 0x3B5 JUMP JUMPDEST PUSH1 0x40 MLOAD PUSH2 0xFB SWAP2 SWAP1 PUSH2 0x7B7 JUMP JUMPDEST PUSH1 0x40 MLOAD DUP1 SWAP2 SUB SWAP1 RETURN JUMPDEST PUSH2 0x10C PUSH2 0x3DB JUMP JUMPDEST STOP JUMPDEST CALLVALUE DUP1 ISZERO PUSH2 0x11A JUMPI PUSH1 0x0 DUP1 REVERT JUMPDEST POP PUSH2 0x135 PUSH1 0x4 DUP1 CALLDATASIZE SUB DUP2 ADD SWAP1 PUSH2 0x130 SWAP2 SWAP1 PUSH2 0x7FE JUMP JUMPDEST PUSH2 0x51B JUMP JUMPDEST PUSH1 0x40 MLOAD PUSH2 0x142 SWAP2 SWAP1 PUSH2 0x7B7 JUMP JUMPDEST PUSH1 0x40 MLOAD DUP1 SWAP2 SUB SWAP1 RETURN JUMPDEST PUSH1 0x0 SLOAD DUP2 JUMP JUMPDEST PUSH1 0x3 PUSH1 0x0 SWAP1 SLOAD SWAP1 PUSH2 0x100 EXP SWAP1 DIV PUSH20 0xFFFFFFFFFFFFFFFFFFFFFFFFFFFFFFFFFFFFFFFF AND PUSH20 0xFFFFFFFFFFFFFFFFFFFFFFFFFFFFFFFFFFFFFFFF AND CALLER PUSH20 0xFFFFFFFFFFFFFFFFFFFFFFFFFFFFFFFFFFFFFFFF AND EQ PUSH2 0x1E1 JUMPI PUSH1 0x40 MLOAD PUSH32 0x8C379A000000000000000000000000000000000000000000000000000000000 DUP2 MSTORE PUSH1 0x4 ADD PUSH2 0x1D8 SWAP1 PUSH2 0x888 JUMP JUMPDEST PUSH1 0x40 MLOAD DUP1 SWAP2 SUB SWAP1 REVERT JUMPDEST PUSH1 0x0 JUMPDEST PUSH1 0x1 DUP1 SLOAD SWAP1 POP DUP2 LT ISZERO PUSH2 0x28D JUMPI PUSH1 0x0 PUSH1 0x1 DUP3 DUP2 SLOAD DUP2 LT PUSH2 0x207 JUMPI PUSH2 0x206 PUSH2 0x8A8 JUMP JUMPDEST JUMPDEST SWAP1 PUSH1 0x0 MSTORE PUSH1 0x20 PUSH1 0x0 KECCAK256 ADD PUSH1 0x0 SWAP1 SLOAD SWAP1 PUSH2 0x100 EXP SWAP1 DIV PUSH20 0xFFFFFFFFFFFFFFFFFFFFFFFFFFFFFFFFFFFFFFFF AND SWAP1 POP PUSH1 0x0 PUSH1 0x2 PUSH1 0x0 DUP4 PUSH20 0xFFFFFFFFFFFFFFFFFFFFFFFFFFFFFFFFFFFFFFFF AND PUSH20 0xFFFFFFFFFFFFFFFFFFFFFFFFFFFFFFFFFFFFFFFF AND DUP2 MSTORE PUSH1 0x20 ADD SWAP1 DUP2 MSTORE PUSH1 0x20 ADD PUSH1 0x0 KECCAK256 DUP2 SWAP1 SSTORE POP POP DUP1 DUP1 PUSH2 0x285 SWAP1 PUSH2 0x906 JUMP JUMPDEST SWAP2 POP POP PUSH2 0x1E4 JUMP JUMPDEST POP PUSH1 0x0 PUSH8 0xFFFFFFFFFFFFFFFF DUP2 GT ISZERO PUSH2 0x2A9 JUMPI PUSH2 0x2A8 PUSH2 0x94E JUMP JUMPDEST JUMPDEST PUSH1 0x40 MLOAD SWAP1 DUP1 DUP3 MSTORE DUP1 PUSH1 0x20 MUL PUSH1 0x20 ADD DUP3 ADD PUSH1 0x40 MSTORE DUP1 ISZERO PUSH2 0x2D7 JUMPI DUP2 PUSH1 0x20 ADD PUSH1 0x20 DUP3 MUL DUP1 CALLDATASIZE DUP4 CALLDATACOPY DUP1 DUP3 ADD SWAP2 POP POP SWAP1 POP JUMPDEST POP PUSH1 0x1 SWAP1 DUP1 MLOAD SWAP1 PUSH1 0x20 ADD SWAP1 PUSH2 0x2ED SWAP3 SWAP2 SWAP1 PUSH2 0x63D JUMP JUMPDEST POP PUSH1 0x0 CALLER PUSH20 0xFFFFFFFFFFFFFFFFFFFFFFFFFFFFFFFFFFFFFFFF AND SELFBALANCE PUSH1 0x40 MLOAD PUSH2 0x314 SWAP1 PUSH2 0x9AE JUMP JUMPDEST PUSH1 0x0 PUSH1 0x40 MLOAD DUP1 DUP4 SUB DUP2 DUP6 DUP8 GAS CALL SWAP3 POP POP POP RETURNDATASIZE DUP1 PUSH1 0x0 DUP2 EQ PUSH2 0x351 JUMPI PUSH1 0x40 MLOAD SWAP2 POP PUSH1 0x1F NOT PUSH1 0x3F RETURNDATASIZE ADD AND DUP3 ADD PUSH1 0x40 MSTORE RETURNDATASIZE DUP3 MSTORE RETURNDATASIZE PUSH1 0x0 PUSH1 0x20 DUP5 ADD RETURNDATACOPY PUSH2 0x356 JUMP JUMPDEST PUSH1 0x60 SWAP2 POP JUMPDEST POP POP SWAP1 POP DUP1 PUSH2 0x39A JUMPI PUSH1 0x40 MLOAD PUSH32 0x8C379A000000000000000000000000000000000000000000000000000000000 DUP2 MSTORE PUSH1 0x4 ADD PUSH2 0x391 SWAP1 PUSH2 0xA0F JUMP JUMPDEST PUSH1 0x40 MLOAD DUP1 SWAP2 SUB SWAP1 REVERT JUMPDEST POP JUMP JUMPDEST PUSH1 0x2 PUSH1 0x20 MSTORE DUP1 PUSH1 0x0 MSTORE PUSH1 0x40 PUSH1 0x0 KECCAK256 PUSH1 0x0 SWAP2 POP SWAP1 POP SLOAD DUP2 JUMP JUMPDEST PUSH1 0x3 PUSH1 0x0 SWAP1 SLOAD SWAP1 PUSH2 0x100 EXP SWAP1 DIV PUSH20 0xFFFFFFFFFFFFFFFFFFFFFFFFFFFFFFFFFFFFFFFF AND DUP2 JUMP JUMPDEST PUSH1 0x0 SLOAD PUSH2 0x3E7 CALLVALUE PUSH2 0x55A JUMP JUMPDEST LT ISZERO PUSH2 0x428 JUMPI PUSH1 0x40 MLOAD PUSH32 0x8C379A000000000000000000000000000000000000000000000000000000000 DUP2 MSTORE PUSH1 0x4 ADD PUSH2 0x41F SWAP1 PUSH2 0xA7B JUMP JUMPDEST PUSH1 0x40 MLOAD DUP1 SWAP2 SUB SWAP1 REVERT JUMPDEST PUSH1 0x1 CALLER SWAP1 DUP1 PUSH1 0x1 DUP2 SLOAD ADD DUP1 DUP3 SSTORE DUP1 SWAP2 POP POP PUSH1 0x1 SWAP1 SUB SWAP1 PUSH1 0x0 MSTORE PUSH1 0x20 PUSH1 0x0 KECCAK256 ADD PUSH1 0x0 SWAP1 SWAP2 SWAP1 SWAP2 SWAP1 SWAP2 PUSH2 0x100 EXP DUP2 SLOAD DUP2 PUSH20 0xFFFFFFFFFFFFFFFFFFFFFFFFFFFFFFFFFFFFFFFF MUL NOT AND SWAP1 DUP4 PUSH20 0xFFFFFFFFFFFFFFFFFFFFFFFFFFFFFFFFFFFFFFFF AND MUL OR SWAP1 SSTORE POP CALLVALUE PUSH1 0x2 PUSH1 0x0 CALLER PUSH20 0xFFFFFFFFFFFFFFFFFFFFFFFFFFFFFFFFFFFFFFFF AND PUSH20 0xFFFFFFFFFFFFFFFFFFFFFFFFFFFFFFFFFFFFFFFF AND DUP2 MSTORE PUSH1 0x20 ADD SWAP1 DUP2 MSTORE PUSH1 0x20 ADD PUSH1 0x0 KECCAK256 SLOAD PUSH2 0x4D6 SWAP2 SWAP1 PUSH2 0xA9B JUMP JUMPDEST PUSH1 0x2 PUSH1 0x0 CALLER PUSH20 0xFFFFFFFFFFFFFFFFFFFFFFFFFFFFFFFFFFFFFFFF AND PUSH20 0xFFFFFFFFFFFFFFFFFFFFFFFFFFFFFFFFFFFFFFFF AND DUP2 MSTORE PUSH1 0x20 ADD SWAP1 DUP2 MSTORE PUSH1 0x20 ADD PUSH1 0x0 KECCAK256 DUP2 SWAP1 SSTORE POP JUMP JUMPDEST PUSH1 0x1 DUP2 DUP2 SLOAD DUP2 LT PUSH2 0x52B JUMPI PUSH1 0x0 DUP1 REVERT JUMPDEST SWAP1 PUSH1 0x0 MSTORE PUSH1 0x20 PUSH1 0x0 KECCAK256 ADD PUSH1 0x0 SWAP2 POP SLOAD SWAP1 PUSH2 0x100 EXP SWAP1 DIV PUSH20 0xFFFFFFFFFFFFFFFFFFFFFFFFFFFFFFFFFFFFFFFF AND DUP2 JUMP JUMPDEST PUSH1 0x0 DUP1 PUSH2 0x565 PUSH2 0x594 JUMP JUMPDEST SWAP1 POP PUSH1 0x0 PUSH8 0xDE0B6B3A7640000 DUP5 DUP4 PUSH2 0x57E SWAP2 SWAP1 PUSH2 0xACF JUMP JUMPDEST PUSH2 0x588 SWAP2 SWAP1 PUSH2 0xB40 JUMP JUMPDEST SWAP1 POP DUP1 SWAP3 POP POP POP SWAP2 SWAP1 POP JUMP JUMPDEST PUSH1 0x0 DUP1 PUSH20 0x694AA1769357215DE4FAC081BF1F309ADC325306 SWAP1 POP PUSH1 0x0 DUP2 PUSH20 0xFFFFFFFFFFFFFFFFFFFFFFFFFFFFFFFFFFFFFFFF AND PUSH4 0xFEAF968C PUSH1 0x40 MLOAD DUP2 PUSH4 0xFFFFFFFF AND PUSH1 0xE0 SHL DUP2 MSTORE PUSH1 0x4 ADD PUSH1 0xA0 PUSH1 0x40 MLOAD DUP1 DUP4 SUB DUP2 DUP7 GAS STATICCALL ISZERO DUP1 ISZERO PUSH2 0x5FB JUMPI RETURNDATASIZE PUSH1 0x0 DUP1 RETURNDATACOPY RETURNDATASIZE PUSH1 0x0 REVERT JUMPDEST POP POP POP POP PUSH1 0x40 MLOAD RETURNDATASIZE PUSH1 0x1F NOT PUSH1 0x1F DUP3 ADD AND DUP3 ADD DUP1 PUSH1 0x40 MSTORE POP DUP2 ADD SWAP1 PUSH2 0x61F SWAP2 SWAP1 PUSH2 0xBFE JUMP JUMPDEST POP POP POP SWAP2 POP POP PUSH5 0x2540BE400 DUP2 PUSH2 0x636 SWAP2 SWAP1 PUSH2 0xC79 JUMP JUMPDEST SWAP3 POP POP POP SWAP1 JUMP JUMPDEST DUP3 DUP1 SLOAD DUP3 DUP3 SSTORE SWAP1 PUSH1 0x0 MSTORE PUSH1 0x20 PUSH1 0x0 KECCAK256 SWAP1 DUP2 ADD SWAP3 DUP3 ISZERO PUSH2 0x6B6 JUMPI SWAP2 PUSH1 0x20 MUL DUP3 ADD JUMPDEST DUP3 DUP2 GT ISZERO PUSH2 0x6B5 JUMPI DUP3 MLOAD DUP3 PUSH1 0x0 PUSH2 0x100 EXP DUP2 SLOAD DUP2 PUSH20 0xFFFFFFFFFFFFFFFFFFFFFFFFFFFFFFFFFFFFFFFF MUL NOT AND SWAP1 DUP4 PUSH20 0xFFFFFFFFFFFFFFFFFFFFFFFFFFFFFFFFFFFFFFFF AND MUL OR SWAP1 SSTORE POP SWAP2 PUSH1 0x20 ADD SWAP2 SWAP1 PUSH1 0x1 ADD SWAP1 PUSH2 0x65D JUMP JUMPDEST JUMPDEST POP SWAP1 POP PUSH2 0x6C3 SWAP2 SWAP1 PUSH2 0x6C7 JUMP JUMPDEST POP SWAP1 JUMP JUMPDEST JUMPDEST DUP1 DUP3 GT ISZERO PUSH2 0x6E0 JUMPI PUSH1 0x0 DUP2 PUSH1 0x0 SWAP1 SSTORE POP PUSH1 0x1 ADD PUSH2 0x6C8 JUMP JUMPDEST POP SWAP1 JUMP JUMPDEST PUSH1 0x0 DUP2 SWAP1 POP SWAP2 SWAP1 POP JUMP JUMPDEST PUSH2 0x6F7 DUP2 PUSH2 0x6E4 JUMP JUMPDEST DUP3 MSTORE POP POP JUMP JUMPDEST PUSH1 0x0 PUSH1 0x20 DUP3 ADD SWAP1 POP PUSH2 0x712 PUSH1 0x0 DUP4 ADD DUP5 PUSH2 0x6EE JUMP JUMPDEST SWAP3 SWAP2 POP POP JUMP JUMPDEST PUSH1 0x0 DUP1 REVERT JUMPDEST PUSH1 0x0 PUSH20 0xFFFFFFFFFFFFFFFFFFFFFFFFFFFFFFFFFFFFFFFF DUP3 AND SWAP1 POP SWAP2 SWAP1 POP JUMP JUMPDEST PUSH1 0x0 PUSH2 0x748 DUP3 PUSH2 0x71D JUMP JUMPDEST SWAP1 POP SWAP2 SWAP1 POP JUMP JUMPDEST PUSH2 0x758 DUP2 PUSH2 0x73D JUMP JUMPDEST DUP2 EQ PUSH2 0x763 JUMPI PUSH1 0x0 DUP1 REVERT JUMPDEST POP JUMP JUMPDEST PUSH1 0x0 DUP2 CALLDATALOAD SWAP1 POP PUSH2 0x775 DUP2 PUSH2 0x74F JUMP JUMPDEST SWAP3 SWAP2 POP POP JUMP JUMPDEST PUSH1 0x0 PUSH1 0x20 DUP3 DUP5 SUB SLT ISZERO PUSH2 0x791 JUMPI PUSH2 0x790 PUSH2 0x718 JUMP JUMPDEST JUMPDEST PUSH1 0x0 PUSH2 0x79F DUP5 DUP3 DUP6 ADD PUSH2 0x766 JUMP JUMPDEST SWAP2 POP POP SWAP3 SWAP2 POP POP JUMP JUMPDEST PUSH2 0x7B1 DUP2 PUSH2 0x73D JUMP JUMPDEST DUP3 MSTORE POP POP JUMP JUMPDEST PUSH1 0x0 PUSH1 0x20 DUP3 ADD SWAP1 POP PUSH2 0x7CC PUSH1 0x0 DUP4 ADD DUP5 PUSH2 0x7A8 JUMP JUMPDEST SWAP3 SWAP2 POP POP JUMP JUMPDEST PUSH2 0x7DB DUP2 PUSH2 0x6E4 JUMP JUMPDEST DUP2 EQ PUSH2 0x7E6 JUMPI PUSH1 0x0 DUP1 REVERT JUMPDEST POP JUMP JUMPDEST PUSH1 0x0 DUP2 CALLDATALOAD SWAP1 POP PUSH2 0x7F8 DUP2 PUSH2 0x7D2 JUMP JUMPDEST SWAP3 SWAP2 POP POP JUMP JUMPDEST PUSH1 0x0 PUSH1 0x20 DUP3 DUP5 SUB SLT ISZERO PUSH2 0x814 JUMPI PUSH2 0x813 PUSH2 0x718 JUMP JUMPDEST JUMPDEST PUSH1 0x0 PUSH2 0x822 DUP5 DUP3 DUP6 ADD PUSH2 0x7E9 JUMP JUMPDEST SWAP2 POP POP SWAP3 SWAP2 POP POP JUMP JUMPDEST PUSH1 0x0 DUP3 DUP3 MSTORE PUSH1 0x20 DUP3 ADD SWAP1 POP SWAP3 SWAP2 POP POP JUMP JUMPDEST PUSH32 0x53656E646572206973206E6F74206F776E657221000000000000000000000000 PUSH1 0x0 DUP3 ADD MSTORE POP JUMP JUMPDEST PUSH1 0x0 PUSH2 0x872 PUSH1 0x14 DUP4 PUSH2 0x82B JUMP JUMPDEST SWAP2 POP PUSH2 0x87D DUP3 PUSH2 0x83C JUMP JUMPDEST PUSH1 0x20 DUP3 ADD SWAP1 POP SWAP2 SWAP1 POP JUMP JUMPDEST PUSH1 0x0 PUSH1 0x20 DUP3 ADD SWAP1 POP DUP2 DUP2 SUB PUSH1 0x0 DUP4 ADD MSTORE PUSH2 0x8A1 DUP2 PUSH2 0x865 JUMP JUMPDEST SWAP1 POP SWAP2 SWAP1 POP JUMP JUMPDEST PUSH32 0x4E487B7100000000000000000000000000000000000000000000000000000000 PUSH1 0x0 MSTORE PUSH1 0x32 PUSH1 0x4 MSTORE PUSH1 0x24 PUSH1 0x0 REVERT JUMPDEST PUSH32 0x4E487B7100000000000000000000000000000000000000000000000000000000 PUSH1 0x0 MSTORE PUSH1 0x11 PUSH1 0x4 MSTORE PUSH1 0x24 PUSH1 0x0 REVERT JUMPDEST PUSH1 0x0 PUSH2 0x911 DUP3 PUSH2 0x6E4 JUMP JUMPDEST SWAP2 POP PUSH32 0xFFFFFFFFFFFFFFFFFFFFFFFFFFFFFFFFFFFFFFFFFFFFFFFFFFFFFFFFFFFFFFFF DUP3 SUB PUSH2 0x943 JUMPI PUSH2 0x942 PUSH2 0x8D7 JUMP JUMPDEST JUMPDEST PUSH1 0x1 DUP3 ADD SWAP1 POP SWAP2 SWAP1 POP JUMP JUMPDEST PUSH32 0x4E487B7100000000000000000000000000000000000000000000000000000000 PUSH1 0x0 MSTORE PUSH1 0x41 PUSH1 0x4 MSTORE PUSH1 0x24 PUSH1 0x0 REVERT JUMPDEST PUSH1 0x0 DUP2 SWAP1 POP SWAP3 SWAP2 POP POP JUMP JUMPDEST POP JUMP JUMPDEST PUSH1 0x0 PUSH2 0x998 PUSH1 0x0 DUP4 PUSH2 0x97D JUMP JUMPDEST SWAP2 POP PUSH2 0x9A3 DUP3 PUSH2 0x988 JUMP JUMPDEST PUSH1 0x0 DUP3 ADD SWAP1 POP SWAP2 SWAP1 POP JUMP JUMPDEST PUSH1 0x0 PUSH2 0x9B9 DUP3 PUSH2 0x98B JUMP JUMPDEST SWAP2 POP DUP2 SWAP1 POP SWAP2 SWAP1 POP JUMP JUMPDEST PUSH32 0x43616C6C206661696C6564000000000000000000000000000000000000000000 PUSH1 0x0 DUP3 ADD MSTORE POP JUMP JUMPDEST PUSH1 0x0 PUSH2 0x9F9 PUSH1 0xB DUP4 PUSH2 0x82B JUMP JUMPDEST SWAP2 POP PUSH2 0xA04 DUP3 PUSH2 0x9C3 JUMP JUMPDEST PUSH1 0x20 DUP3 ADD SWAP1 POP SWAP2 SWAP1 POP JUMP JUMPDEST PUSH1 0x0 PUSH1 0x20 DUP3 ADD SWAP1 POP DUP2 DUP2 SUB PUSH1 0x0 DUP4 ADD MSTORE PUSH2 0xA28 DUP2 PUSH2 0x9EC JUMP JUMPDEST SWAP1 POP SWAP2 SWAP1 POP JUMP JUMPDEST PUSH32 0x6469646E20742073656E6420656E6F7567682045544800000000000000000000 PUSH1 0x0 DUP3 ADD MSTORE POP JUMP JUMPDEST PUSH1 0x0 PUSH2 0xA65 PUSH1 0x16 DUP4 PUSH2 0x82B JUMP JUMPDEST SWAP2 POP PUSH2 0xA70 DUP3 PUSH2 0xA2F JUMP JUMPDEST PUSH1 0x20 DUP3 ADD SWAP1 POP SWAP2 SWAP1 POP JUMP JUMPDEST PUSH1 0x0 PUSH1 0x20 DUP3 ADD SWAP1 POP DUP2 DUP2 SUB PUSH1 0x0 DUP4 ADD MSTORE PUSH2 0xA94 DUP2 PUSH2 0xA58 JUMP JUMPDEST SWAP1 POP SWAP2 SWAP1 POP JUMP JUMPDEST PUSH1 0x0 PUSH2 0xAA6 DUP3 PUSH2 0x6E4 JUMP JUMPDEST SWAP2 POP PUSH2 0xAB1 DUP4 PUSH2 0x6E4 JUMP JUMPDEST SWAP3 POP DUP3 DUP3 ADD SWAP1 POP DUP1 DUP3 GT ISZERO PUSH2 0xAC9 JUMPI PUSH2 0xAC8 PUSH2 0x8D7 JUMP JUMPDEST JUMPDEST SWAP3 SWAP2 POP POP JUMP JUMPDEST PUSH1 0x0 PUSH2 0xADA DUP3 PUSH2 0x6E4 JUMP JUMPDEST SWAP2 POP PUSH2 0xAE5 DUP4 PUSH2 0x6E4 JUMP JUMPDEST SWAP3 POP DUP3 DUP3 MUL PUSH2 0xAF3 DUP2 PUSH2 0x6E4 JUMP JUMPDEST SWAP2 POP DUP3 DUP3 DIV DUP5 EQ DUP4 ISZERO OR PUSH2 0xB0A JUMPI PUSH2 0xB09 PUSH2 0x8D7 JUMP JUMPDEST JUMPDEST POP SWAP3 SWAP2 POP POP JUMP JUMPDEST PUSH32 0x4E487B7100000000000000000000000000000000000000000000000000000000 PUSH1 0x0 MSTORE PUSH1 0x12 PUSH1 0x4 MSTORE PUSH1 0x24 PUSH1 0x0 REVERT JUMPDEST PUSH1 0x0 PUSH2 0xB4B DUP3 PUSH2 0x6E4 JUMP JUMPDEST SWAP2 POP PUSH2 0xB56 DUP4 PUSH2 0x6E4 JUMP JUMPDEST SWAP3 POP DUP3 PUSH2 0xB66 JUMPI PUSH2 0xB65 PUSH2 0xB11 JUMP JUMPDEST JUMPDEST DUP3 DUP3 DIV SWAP1 POP SWAP3 SWAP2 POP POP JUMP JUMPDEST PUSH1 0x0 PUSH10 0xFFFFFFFFFFFFFFFFFFFF DUP3 AND SWAP1 POP SWAP2 SWAP1 POP JUMP JUMPDEST PUSH2 0xB90 DUP2 PUSH2 0xB71 JUMP JUMPDEST DUP2 EQ PUSH2 0xB9B JUMPI PUSH1 0x0 DUP1 REVERT JUMPDEST POP JUMP JUMPDEST PUSH1 0x0 DUP2 MLOAD SWAP1 POP PUSH2 0xBAD DUP2 PUSH2 0xB87 JUMP JUMPDEST SWAP3 SWAP2 POP POP JUMP JUMPDEST PUSH1 0x0 DUP2 SWAP1 POP SWAP2 SWAP1 POP JUMP JUMPDEST PUSH2 0xBC6 DUP2 PUSH2 0xBB3 JUMP JUMPDEST DUP2 EQ PUSH2 0xBD1 JUMPI PUSH1 0x0 DUP1 REVERT JUMPDEST POP JUMP JUMPDEST PUSH1 0x0 DUP2 MLOAD SWAP1 POP PUSH2 0xBE3 DUP2 PUSH2 0xBBD JUMP JUMPDEST SWAP3 SWAP2 POP POP JUMP JUMPDEST PUSH1 0x0 DUP2 MLOAD SWAP1 POP PUSH2 0xBF8 DUP2 PUSH2 0x7D2 JUMP JUMPDEST SWAP3 SWAP2 POP POP JUMP JUMPDEST PUSH1 0x0 DUP1 PUSH1 0x0 DUP1 PUSH1 0x0 PUSH1 0xA0 DUP7 DUP9 SUB SLT ISZERO PUSH2 0xC1A JUMPI PUSH2 0xC19 PUSH2 0x718 JUMP JUMPDEST JUMPDEST PUSH1 0x0 PUSH2 0xC28 DUP9 DUP3 DUP10 ADD PUSH2 0xB9E JUMP JUMPDEST SWAP6 POP POP PUSH1 0x20 PUSH2 0xC39 DUP9 DUP3 DUP10 ADD PUSH2 0xBD4 JUMP JUMPDEST SWAP5 POP POP PUSH1 0x40 PUSH2 0xC4A DUP9 DUP3 DUP10 ADD PUSH2 0xBE9 JUMP JUMPDEST SWAP4 POP POP PUSH1 0x60 PUSH2 0xC5B DUP9 DUP3 DUP10 ADD PUSH2 0xBE9 JUMP JUMPDEST SWAP3 POP POP PUSH1 0x80 PUSH2 0xC6C DUP9 DUP3 DUP10 ADD PUSH2 0xB9E JUMP JUMPDEST SWAP2 POP POP SWAP3 SWAP6 POP SWAP3 SWAP6 SWAP1 SWAP4 POP JUMP JUMPDEST PUSH1 0x0 PUSH2 0xC84 DUP3 PUSH2 0xBB3 JUMP JUMPDEST SWAP2 POP PUSH2 0xC8F DUP4 PUSH2 0xBB3 JUMP JUMPDEST SWAP3 POP DUP3 DUP3 MUL PUSH2 0xC9D DUP2 PUSH2 0xBB3 JUMP JUMPDEST SWAP2 POP PUSH32 0x8000000000000000000000000000000000000000000000000000000000000000 DUP5 EQ PUSH1 0x0 DUP5 SLT AND ISZERO PUSH2 0xCD5 JUMPI PUSH2 0xCD4 PUSH2 0x8D7 JUMP JUMPDEST JUMPDEST DUP3 DUP3 SDIV DUP5 EQ DUP4 ISZERO OR PUSH2 0xCEA JUMPI PUSH2 0xCE9 PUSH2 0x8D7 JUMP JUMPDEST JUMPDEST POP SWAP3 SWAP2 POP POP JUMP INVALID LOG2 PUSH5 0x6970667358 0x22 SLT KECCAK256 PUSH32 0x31A819A7B7BAF86C93B2573AB376DCCF30AE56483E291B55E2C1C32BFC624B64 PUSH20 0x6F6C634300081200330000000000000000000000 "
				},
				"gasEstimates": {
					"creation": {
						"codeDepositCost": "673400",
						"executionCost": "47080",
						"totalCost": "720480"
					},
					"external": {
						"addressToAmountFunded(address)": "2836",
						"fund()": "infinite",
						"funders(uint256)": "5044",
						"minimumUsd()": "2407",
						"owner()": "2558",
						"withdraw()": "infinite"
					}
				},
				"methodIdentifiers": {
					"addressToAmountFunded(address)": "3e47d6f3",
					"fund()": "b60d4288",
					"funders(uint256)": "dc0d3dff",
					"minimumUsd()": "098de820",
					"owner()": "8da5cb5b",
					"withdraw()": "3ccfd60b"
				}
			},
			"storageLayout": {
				"storage": [
					{
						"astId": 55,
						"contract": "FundMe.sol:FundMe",
						"label": "minimumUsd",
						"offset": 0,
						"slot": "0",
						"type": "t_uint256"
					},
					{
						"astId": 58,
						"contract": "FundMe.sol:FundMe",
						"label": "funders",
						"offset": 0,
						"slot": "1",
						"type": "t_array(t_address)dyn_storage"
					},
					{
						"astId": 62,
						"contract": "FundMe.sol:FundMe",
						"label": "addressToAmountFunded",
						"offset": 0,
						"slot": "2",
						"type": "t_mapping(t_address,t_uint256)"
					},
					{
						"astId": 64,
						"contract": "FundMe.sol:FundMe",
						"label": "owner",
						"offset": 0,
						"slot": "3",
						"type": "t_address"
					}
				],
				"types": {
					"t_address": {
						"encoding": "inplace",
						"label": "address",
						"numberOfBytes": "20"
					},
					"t_array(t_address)dyn_storage": {
						"base": "t_address",
						"encoding": "dynamic_array",
						"label": "address[]",
						"numberOfBytes": "32"
					},
					"t_mapping(t_address,t_uint256)": {
						"encoding": "mapping",
						"key": "t_address",
						"label": "mapping(address => uint256)",
						"numberOfBytes": "32",
						"value": "t_uint256"
					},
					"t_uint256": {
						"encoding": "inplace",
						"label": "uint256",
						"numberOfBytes": "32"
					}
				}
			},
			"userdoc": {
				"kind": "user",
				"methods": {},
				"version": 1
			}
		}
	}
}